:020000040800F2
:10000000700900206D020008253500087D300008C9
:1000100021350008D50600087139000800000000ED
:100020000000000000000000000000002D35000866
:10003000F1060008000000002935000831350008ED
:10004000870200088702000887020008870200086C
:10005000870200088702000887020008870200085C
:10006000870200088702000887020008870200084C
:10007000870200088702000887020008870200083C
:1000800087020008D90600088702000887020008D6
:10009000870200088702000887020008870200081C
:1000A0008702000887020008870200082936000836
:1000B000870200083536000887020008870200081A
:1000C00087020008870200088702000887020008EC
:1000D00087020008870200086539000887020008C7
:1000E00087020008870200088702000887020008CC
:1000F00087020008870200088702000887020008BC
:1001000087020008870200088702000887020008AB
:10011000870200088702000887020008870200089B
:10012000E506000887020008870200088702000829
:10013000870200080000000000000000870200089D
:10014000870200088702000887020008870200086B
:10015000870200088702000887020008870200085B
:10016000870200088702000887020008870200084B
:1001700087020008870200088702000800000000CC
:1001800000000000870200080000000000000000DE
:10019000870200080000000000000000870200083D
:1001A00000000000000000000000000087020008BE
:1001B00087020008870200088702000887020008FB
:1001C0008702000800F002F800F041F80AA090E869
:1001D000000C82448344AAF10107DA4501D100F002
:1001E00036F8AFF2090EBAE80F0013F0010F18BF8E
:1001F000FB1A43F001031847E8390000083A0000F1
:10020000103A24BF78C878C1FAD8520724BF30C842
:1002100030C144BF04680C60704700000023002414
:1002200000250026103A28BF78C1FBD8520728BF06
:1002300030C148BF0B607047752900F0F78000207F
:1002400070471FB503F09EFC1FBD10B510BD00F038
:10025000C2F91146FFF7F5FF03F08CFB00F0E0F95F
:1002600003B4FFF7F2FF03BC00F0E8F90948804748
:1002700009480047FEE7FEE7FEE7FEE7FEE7FEE788
:10028000FEE7FEE7FEE7FEE704480549054A064BA0
:100290007047000015360008C501000870030020F3
:1002A00070090020700500207005002053EA020C40
:1002B00000F069802DE9F04B4FF00006002B1FBFC6
:1002C000B3FA83F503FA05F424FA05F65E4012BF8B
:1002D0001643B2FA82F502FA05F4C5F120051EBFF5
:1002E00022FA05FC44EA0C04203556EA044C4FEA95
:1002F000144418BF641C4FF000084FF000099042EE
:1003000071EB030C39D3002919BFB1FA81F701FA57
:1003100007F6B0FA80F700FA07F6C7F120071EBF0C
:1003200020FA07FC46EA0C062037B6FBF4FCA7EBE4
:100330000507103F07F01F0BCBF120062CFA06F63D
:100340000CFA0BFB44BFB3460026202FA4BF5E4629
:100350004FF0000B5BEA060C08BF4FF0010B19EBE6
:100360000B0948EB0608ABFB027C06FB02CC0BFB3F
:1003700003CCC01B71EB0C01C1E70B4602464146A2
:100380004846BDE8F08B13B5084318BF4FF0FF3067
:100390000146AFF30080BDE81C4070470FB41CB5A8
:1003A000074B06AA7B4469460090059800F0FBF8CD
:1003B0000020694600F00AF91CBC5DF814FB00003F
:1003C000250200002DE9F0410E460446002020627F
:1003D0002046E168884730B3252805D0D4E90121BB
:1003E0009047206A401CF2E7E168204600278847D2
:1003F000050018D0A5F14100192802D820354FF486
:1004000000673246294620462760FFF715FF40B1B6
:10041000012804D0F61D26F007060836D8E7361D59
:10042000D6E72846DAE7206ABDE8F0812DE9F041F9
:100430000646002410687529314616A510D0AFF382
:100440000080002802DA404213A507E031688A07DD
:1004500001D512A502E0490704D511A5012401E048
:10046000AFF3008000210A2206F1240709E0B0FB67
:10047000F2FCB0FBF2F302FB1C003030785418465B
:10048000491C0028F3D123462A463046BDE8F041F6
:1004900000F02AB8000000002D0000002B00000032
:1004A0002000000010B5431C02E010F8011B71B1E0
:1004B0008107FAD14FF0013202C88C1A8C4314EA3A
:1004C000C211F9D0C01A0A0603D0C01E10BDC01A4E
:1004D00010BD0A0401D0801E10BD0902FCD0401ED0
:1004E00010BD7047704770472DE9F0470D4699469B
:1004F0009246044600F124080168880604D5E069A4
:1005000021F01001216000E00120A84201DD471B1D
:1005100000E00027A1697A1902EB0900081AA0611E
:100520002078C00602D42046AFF30080002608E001
:10053000D4E901211AF806009047206A401C761C75
:1005400020624E45F4DB2078C0060AD52046AFF382
:10055000008006E0D4E9012130209047206A401C49
:100560002062381EA7F10107F4DC07E0D4E901217D
:1005700018F805009047206A401C2062281EA5F14B
:100580000105F3DC2046AFF300802078000602D599
:100590000220BDE8F0870120FBE7000001694A1C4A
:1005A00002610878704700B58FB0CDE901310021B4
:1005B000059105497944CDE9031011466846FFF7D6
:1005C00001FF0FB000BD0000E5FFFFFF0A6802F861
:1005D000010B0A607047754600F02CF8AE46050026
:1005E0006946534620F00700854618B020B5FFF74E
:1005F0004BFEBDE820404FF000064FF000074FF0E3
:1006000000084FF0000BAC46ACE8C009ACE8C009EC
:10061000ACE8C009ACE8C00921F007018D4670477D
:1006200010B50446AFF300802046BDE81040FFF748
:1006300017BE000000487047100000200149182034
:10064000ABBEFEE726000200704700000146806B4B
:10065000036C026C13F0500F07D0D20648BF00F0B5
:1006600013B9806BC26C0846104742F400710164F4
:1006700001688A6812F0405F01D000F0E7B8027E9E
:10068000002AFAD1CA6A12F4700F02D08A685205A1
:10069000F3D44A6822F020024A60016C21F4807190
:1006A0000164016CC90448BF00F0D0B8016C41F08E
:1006B0000101016400F0CAB8806B40210164416C03
:1006C00041F00401416400F0DFB80000806B00F0ED
:1006D000D9B80000FEE7000040F2A410C2F200000A
:1006E00000F012BB40F24410C2F2000000F00CBB5C
:1006F00070470000EFF3108072B600BFFEE7000005
:1007000070B581B00022009290F83C20012A03D1FC
:100710000221084601B070BDD1F800E001221FFAA5
:100720008EFC80F83C204FEA4C0212FA8EF2BEF1A9
:100730000A0F036832BF03F110041E3A03F10C04E0
:1007400007252668954026EA050525608D682668F8
:1007500005FA02F2324322604968062905D801EB06
:1007600081014A1F03F134040BE00C2901EB8101E4
:1007700087BFA1F1410203F12C04A1F1230203F18F
:1007800030041F252668954026EA050542F204310B
:100790002560C4F2010125680CFA02F2A1F5417648
:1007A0002A43B342226005D0002180F83C1008465D
:1007B00001B070BD1222BEF1110FC1F2000218BFCC
:1007C000964536D10B68964523F480030B600B6881
:1007D00043F400030B60E7D140F20C01C2F20001C8
:1007E00009684DF68362C4F21B32A1FB0212910C20
:1007F00001EB81014900009100990029D4D000BF8C
:1008000000990139009100990029CDD00099013952
:10081000009100990029C7D00099013900910099F1
:100820000029C1D000990139009100990029E7D130
:10083000BAE7BEF1120FB7D10A6822F400020A60CB
:100840000A6842F480020A60AEE7000080B500202A
:10085000C4F20200402100F025FD40F2700CC2F20B
:10086000000CDCF824000CF13001431C40F2FC00C9
:10087000C2F200000222CCF82430BDE8804000F033
:1008800021B900007047000070470000002804BF35
:100890000120704710B50446006CE8B3206CC00618
:1008A00044D4206C41F202118843023042F20431F8
:1008B0002064C4F20101086820F4403008600A682E
:1008C00094E809101A43D4F810E00A604168012343
:1008D00021F4807141604168C0F6007341EA0E2145
:1008E0004160416821F040714160416841EA0C017A
:1008F0004160816821F400618160E1688268114390
:100900008160A16A8268994222F070628260826886
:1009100011D122F0405117E0204600F063F800208A
:10092000606484F83C00206CC006BAD50120002128
:1009300084F83C1010BD11438160816821F0405162
:100940008160E16A826811438160816821F002015F
:1009500081608168227E94F8203041EA4201816002
:10096000416883B141F40061416041684EF2000288
:1009700021F460414160616ACFF6FF72436802EB87
:100980004131194301E021F400614160C16A40F244
:10099000000C21F47001C162E2696169CFF6F07C5C
:1009A000C36A0CEB02521A43C262826822F40072DC
:1009B000826094F83020836843EA42228260826831
:1009C00022F480628260826842EA81218160002094
:1009D0006064216C012262F301012164002184F82A
:1009E0003C1010BD2DE9F04186B000260596CDE9FA
:1009F0000366044642F200070068C4F20107B842E9
:100A00000296019602D006B0BDE8F08143F63000B0
:100A10000096C4F20200416901AD41F48071416168
:100A200041694FF0030801F480710091009900962C
:100A3000016841F004010160016801F004010091C6
:100A400000990096016841F00101016000682946A3
:100A500000F00100009000980120019007F5684027
:100A6000CDE9028600F040FB1020CDE9010807F532
:100A700060402946039600F037FB40F2441546F2E9
:100A80001040C2F20005C4F202004FF48061C5E9D3
:100A9000000605F110004FF480524FF48043C5E981
:100AA00002664EC04FF44030C5E90806284600F003
:100AB0000BFA002818BFFFF71DFEA563AC6306B054
:100AC000BDE8F081B0B582B004460020019094F8F2
:100AD0003C00012802D1022002B0B0BD94460A4673
:100AE0000120216884F83C008868C00729D1886803
:100AF0004DF6836540F00100886040F20C00C2F2C0
:100B000000000068C4F21B35A0FB0505A80C00EB33
:100B1000400001900198A0B101980138019001981E
:100B200078B1019801380190019850B101980138CD
:100B30000190019828B1019801380190019800288E
:100B4000EAD18868C00503D5886820F48070886081
:100B50008D68206CED0709D140F010002064606CB6
:100B600040F001006064002002B0B0BD40F20175A9
:100B7000A84300F5807020644868400504D5206CC7
:100B8000012565F30D302064256C0020ED044FF045
:100B9000000544BF656C25F00605656484F83C00DB
:100BA000A06B40F24D6540F2CD63C0F60005C0F683
:100BB0000003C0E90F5340F2B963C0F60003C364F9
:100BC0006FF022030B604B6842F2080543F080632C
:100BD0004B608B68C4F2010543F480738B604C3129
:100BE000634600F01FFAD5F8FC122068C906A5F18B
:100BF00008010CD08842B6D1286810F0405FB2D10D
:100C0000286840F080402860002002B0B0BD8842D3
:100C100014D042F20021C4F2010188420AD042F20B
:100C20000011C4F2010188429DD1D5F8FC12C90619
:100C300099D103E0D5F8FC12C90694D4816811F06B
:100C4000405F90D1816841F080418160002002B016
:100C5000B0BD000070B5866D044600F031FB94F81D
:100C6000351002292ED105462068216C026822F039
:100C700016020260426922F08002426109B9A16C49
:100C800019B1016821F008010160016821F001013A
:100C900001600068C00708D000F012FB401B052867
:100CA00017D820680068C007F6D1E06D3F2101FA2F
:100CB00000F0B060012084F835000020002184F8A5
:100CC000341070BD802060650120002184F834104C
:100CD00070BD20206065032084F83500002184F871
:100CE000341070BD90F83510022909D1052180F823
:100CF00035100068016821F0010101600020704793
:100D00008021416501207047F0B581B00446002084
:100D1000009040F20C00C2F200000268D4E91660B4
:100D200048F2B51337680821C1F64E338140394285
:100D3000A2FB03250CD0226813685B0708D5136853
:100D400023F004031360B160616D41F0010161653E
:100D500001218140394208D022685269120604D527
:100D6000B160616D41F00201616504218140394249
:100D700008D022681268920704D5B160616D41F015
:100D80000401616510218140394217D02068026852
:100D9000120713D5B16002680168520308D4C9056F
:100DA00008D4016821F008010160216C21B905E037
:100DB000080342D4216C09B120468847E16D202008
:100DC00000FA01F23A4244D020680368DB0640D5BD
:100DD000B26094F835300268052B1ED122F016025D
:100DE0000260426922F080024261226C0AB9A26C60
:100DF0001AB1026822F0080202603F208840B06009
:100E0000012084F83500216D0020002984F8340089
:100E100057D02046884701B0F0BD0168520310D476
:100E2000C90512D4016821F010010160012084F885
:100E30003500002084F8340007E0A16C0029BBD104
:100E4000BCE7080301D4616C00E0E16B09B1204606
:100E50008847606DA8B3606DC0072ED0052084F868
:100E600035002068A90A026822F001020260009A97
:100E700001328A4200921AD80268D20717D0009A2B
:100E800001328A42009212D80268D2070FD0009A2B
:100E900001328A4200920AD80268D20707D0009A2B
:100EA00001328A42009202D80268D207DFD10120C3
:100EB00084F83500002084F83400E16C09B1204644
:100EC000884701B0F0BD00002DE9F041044600F074
:100ED000F7F9002C4ED00546022084F8350000209A
:100EE000216884F83400086820F001000860086870
:100EF000C00708D000F0E4F9401B05286BD8216832
:100F00000868C007F6D1086848F23F02CFF2100225
:100F1000D4E90135024004F10C0E9EE8C1511A4398
:100F20002A4310433043384340EA0800626A40EAEB
:100F30000C00042A40EA0E031FD1D4E90A5E206B9C
:100F40004EEA0302104308604869BEF1000F20F02A
:100F5000030040EA050040F0040C14D0B8F5005F2F
:100F600041D0B8F1000F4ED1022D4FD0012D44D009
:100F70004DB94BE00120BDE8F0810B60486920F0DD
:100F8000070040EA020C6FF00F004AF6AB2250FA5D
:100F900081F0CAF6AA22A0FB02231A0943F6D8332D
:100FA000C0F600039A5C40F2FF335F284FF03F0029
:100FB000C1F814C021EA030100FA02F088BF04312D
:100FC000C4E916128860002301220020636584F8BA
:100FD0003520BDE8F081032220230320636584F8D7
:100FE0003520BDE8F081032DCDD80122402301201A
:100FF000DFE805F0020C0203E8E7AEF1C070B0FADA
:1010000080F0400904E0032D04D3BCD1CEF300608E
:101010000028B8D0012240230120636584F83520E0
:10102000BDE8F08170B590F834C0BCF1010F45D037
:101030004FF0010C80F834C0D0F858E090F835C07B
:10104000BCF1010F37D14FF0020C80F835C04FF0E2
:10105000000CC0F854C0D0F800C08468056CC06DA6
:10106000DCF80060402C26F48026CCF80060CCF838
:1010700004300B4604BF13460A463F2101FA00F034
:10108000CCF80830CCF80C20CEF80800DCF80000D2
:1010900040F01600CCF800002DB1DCF8000040F064
:1010A0000800CCF80000DCF8000040F00100CCF8AB
:1010B0000000002070BD002180F83410022070BDB7
:1010C000B0B5044600F0FCF8054640F20000C2F25C
:1010D00000000078611C18BF044400BF00F0F0F865
:1010E000401BA042FAD3B0BD2DE9F04F82B000F111
:1010F0003E4241F6000502F1FF77C4F202050722E5
:101100004FEAB726A84208BF0622062E38BF4FEA8C
:10111000B7224FF0010A002400274FF00008009288
:1011200008E000BF023708F10108202F04F1040491
:1011300000F0B4800E680AFA08F916EA090FF1D037
:10114000D1F804A00AF0030BABF10106012E17D869
:101150000322866802FA07FECA6826EA0E06BA402B
:10116000324382604268CAF3001522EA090205FA96
:1011700008F54FEA480C6FEA0E062A4342600BE07E
:101180000322BA40D643BBF1030FBC4604D1BC4690
:101190004FF0030B22E000BFC2688D68324005FAB1
:1011A0000CF52A43BBF1020FC26017D16FF00302A6
:1011B00002EA5802024404F01C030F25D2F820E092
:1011C00005FA03FA0D692EEA0A0E05FA03F343EA5B
:1011D0000E031362D1F804A00AF0030B02680BFAA5
:1011E0000CF332401A431AF4403F4FF0010A0260F8
:1011F00098D0002243F644030192C4F202031A6815
:1012000043F6004E42F480421A601A68C4F2010E9E
:1012100002F480420192019A28F003024FF6084C32
:101220007244CFF6FF7C52F80C3004F00C060F2508
:10123000B540AB43009D05FA06F6334342F80C3047
:10124000DEF808204B6842EA090643F60C4CDD0242
:1012500058BF22EA0906CEF80860C4F2010CDCF897
:1012600000209D0242EA090658BF22EA0906CCF88E
:101270000060DEF804209D0342EA090658BF22EA16
:101280000906CEF80460DEF80020DB0342EA090616
:1012900058BF22EA0906CEF8006043E702B0BDE875
:1012A000F08F0000426902EA0103914341EA0341E1
:1012B00081617047002A08BF0904816170470000FE
:1012C00040F26830C2F200000068704740F200004F
:1012D00040F26831C2F20000C2F2000100780A68F0
:1012E000104408607047000080B543F60040C4F227
:1012F0000200016841F400710160016841F48061FD
:101300000160016841F480710160032000F086F8FB
:10131000002000F005F800F027F8002080BD000054
:1013200070B540F20006C2F2000640F20C013278BD
:10133000C2F200014FF47A730968B3FBF2F204467B
:10134000B1FBF2F1084600F06DFB0F2C4FF00105E8
:1013500008D838B94FF0FF3021460022002500F0B0
:1013600031F87460284670BD82B0002043F6400119
:101370000190C4F202014A6842F480424A604A681D
:1013800002F480420192019A0090086840F0805077
:101390000860086800F0805000900098072002B0B4
:1013A00000F03CB8002848BF704700F01F01012240
:1013B00002FA01F14EF200124009CEF2000242F8A8
:1013C0002010704710B54EF60C5CCEF2000CDCF825
:1013D0000030C3F3022E8EF00704042C28BF04242F
:1013E000BEF103034FF0FF3E0EFA04F438BF0023B2
:1013F000A14399400EFA03F39A4300F00F03043B14
:101400001143634409010C3300F16042B0F1FF3F26
:10141000C8BF02F56443197010BD00004EF60C51B0
:10142000CEF200010A684FF6FF031A4060F30A2269
:1014300042F0806040F0FD70086070472DE9F04197
:10144000002800F08B8043F60808C4F20208044626
:10145000D8F8F8030D4600F00F00884207D288F84C
:10146000F853D8F8F80300F00F00A84276D12068AE
:10147000810717D5410705D5D8F8001041F4E05190
:10148000C8F80010010705D5D8F8001041F46041F4
:10149000C8F80010D8F80010A26821F0F00111433C
:1014A000C8F80010C0073FD1D8F8F80300F00F00CB
:1014B000A84207D988F8F853D8F8F80300F00F00CD
:1014C000A8424BD12068410707D5D8F80010E26840
:1014D00021F4E0511143C8F80010000708D5D8F8EE
:1014E0000000216920F4604040EAC100C8F8000013
:1014F00000F07CF8D8F8001043F69E32C1F30311D7
:10150000C0F60002515C40F20C0220FA01F140F2F8
:101510000400C2F200000068C2F200021160FFF78E
:10152000FFFE0020BDE8F0816068811E022907D21D
:1015300058F8081C89015CBF0120BDE8F08110E06B
:10154000012807D158F8081C89035CBF0120BDE8B9
:10155000F08106E058F8081C890702D40120BDE894
:10156000F081D8F8001021F003010843C8F800000A
:10157000FFF7A6FE064641F2883700BFD8F8000004
:10158000616800F00C00B0EB810F8DD0FFF798FE82
:10159000801BB842F2D90320BDE8F08140F20C0074
:1015A00043F60801C2F20000C4F2020100680968B3
:1015B00043F6AE32C1F38221C0F60002515CC8404E
:1015C0007047000040F20C0043F60801C2F2000030
:1015D000C4F202010068096843F6AE32C1F3423139
:1015E000C0F60002515CC8407047000010B543F6D9
:1015F0000404C4F202046068C0F3810142F20040B6
:10160000C0F2F400DFE801F04102071641F20020C9
:10161000C0F27A0010BD216801F03F022168236802
:101620004902C3F3881114D4A1FB00010023FEF783
:101630003DFE15E0216801F03F0221682368490260
:10164000C3F3881115D4A1FB00010023FEF72EFE81
:1016500016E041F20020C0F27A004843B0FBF2F0FD
:1016600021680222C1F3014102EB4101B0FBF1F01C
:1016700010BD41F20020C0F27A004843B0FBF2F006
:101680002168C1F30271B0FBF1F010BD2DE9F0410A
:1016900082B0002800F0A0800446007843F60006DF
:1016A000C007C4F2020636D0B06800F00C0004286F
:1016B0002BD0B06800F00C00082802D170684002FE
:1016C00023D4B06800F00C000C2802D170684002EE
:1016D0001BD46568B5F5803F07D03068B5F5A02FFD
:1016E00040F0618140F480203060306840F4803008
:1016F0003060FFF7E5FD0546306880030BD4FFF747
:10170000DFFD401B6428F7D9EFE03068800302D585
:101710006068002860D02078800722D5B06810F07B
:101720000C0F11D0B06800F00C00082802D17068CE
:10173000400209D5B06800F00C000C2840F0AE80E3
:101740007068400200F1AA803068800702D5E06826
:10175000012841D13068216920F0F80040EAC10039
:101760003060207800073BD4207840074FD4A5692B
:1017700085B3B06800F00C00082840F0BA80012D55
:101780002AD07068E16900F480028A4224D1216A7B
:1017900000F03F028A421FD147F6C071626A0140E1
:1017A000B1EB821F18D1A16A4FF6FF73C9039943A9
:1017B00000F44032A1F580318A420DD1E16A00F097
:1017C0007062B2EB016F07D1216B00F0E040B0EB2B
:1017D000017F01D1002022E1012002B0BDE8F081AB
:1017E0006069002840F20000C4F247206ED0012159
:1017F000C0F8801EFFF764FD054600BF706F8007CC
:10180000B2D4FFF75DFD401B0228F7D96DE0306CC4
:101810004FF00008C0000CD4CDF80480306C4FF0BD
:10182000010840F080503064306C00F0805001902E
:10183000019847F20007C4F200073868C00510D4C9
:10184000386840F480703860FFF73AFD054600BF05
:101850003868C00505D4FFF733FD401B0228F7D9CF
:1018600043E0A568012D05D0306F052D78D140F0FB
:1018700004003067306F40F001003067FFF720FD53
:10188000054641F2883700BF306F800700F1828043
:10189000FFF716FD401BB842F6D926E0E0680028A5
:1018A0004AD00020C4F2472001210160FFF708FD63
:1018B000054600BF306880073FF54CAFFFF700FDDD
:1018C000401B02284FF00300F4D9A8E00021C0F823
:1018D000801EFFF7F5FC0546706F80077FF544AF6B
:1018E000FFF7EEFC401B0228F6D9032002B0BDE84A
:1018F000F0810027C4F2472700203866FFF7E0FC9C
:10190000022D05460CD100BF3068800164D5FFF779
:10191000D7FC401B02284FF00300F5D97FE000BF41
:10192000306880017FF556AFFFF7CAFC401B0228E4
:101930004FF00300F4D972E00020C4F247200021E8
:101940000160FFF7BDFC0546306880077FF509AFF1
:10195000FFF7B6FC401B02284FF00300F4D95EE00D
:1019600020F001003067306F20F004003067FFF78F
:10197000A7FC002D05467FF484AF41F28837306F15
:10198000800707D5FFF79CFC401BB8424FF00300CF
:10199000F5D944E0B8F1000F3FF4E9AE306C20F027
:1019A00080503064E3E620F480303060306820F40A
:1019B00080203060FFF784FC002D05467FF49CAE4C
:1019C00006E0FFF77DFC401B64284FF0030026D89B
:1019D00030688003F5D49EE604F11C052FCD246BFE
:1019E000084340EA8210D9034FF6FF729143A1F5F4
:1019F000803140EA0560084340EA047070600120CD
:101A00003866FFF75DFC0446306880013FF5E2AEC2
:101A1000FFF756FC001B02284FF00300F4D902B078
:101A2000BDE8F081411E0020B0EB116F1CBF01200A
:101A300070474EF21002CEF2000251604EF6235172
:101A4000CEF20001F0230B70072190601160704707
:101A5000704700007047000010B590F83C20012A44
:101A60004FF0020252D0012380F83C3080F83D2034
:101A70000268D2F804E0D2F808C00C682EF07003B7
:101A8000234341F2FF74C4F20004A24253600DDC10
:101A900040F2FF73C4F200039A4215DCB2F1804FAA
:101AA00029D040F20043C4F2000322E040F2FF33A9
:101AB000C4F201039A4212DC41F60003C4F20003AF
:101AC0009A4218D0002312E040F60003C4F200034B
:101AD0009A4210D040F60043C4F2000309E044F2F9
:101AE0000003C4F201039A4205D040F20043C4F25D
:101AF00001039A4204D149682CF080031943916094
:101B00000121002280F83D1080F83C20104610BDD5
:101B1000002804BF0120704710B5044690F83D002E
:101B200028B9002084F83C00204600F01FF802206D
:101B300084F83D002068211D01F082FD012084F819
:101B4000460084F83E0084F83F0084F8400084F8A2
:101B5000410084F8420084F8430084F8440084F88B
:101B6000450084F83D00002010BD000080B586B01F
:101B70000021CDE90411CDE90211006840F20042D4
:101B8000C4F200029042019136D00021C4F201015A
:101B9000884247D1002043F630010090C4F2020190
:101BA0004A6942F001024A614A6902F00102009268
:101BB000009A00900A6842F001020A60096801F088
:101BC0000101009100994FF4007101910221CDE9CA
:101BD00002100490012005900020C4F2020001A927
:101BE000FFF782FA1B2000210022FFF7EBFB1B20EE
:101BF000FFF7D8FB06B080BD43F630000091C4F279
:101C000002000169002241F0020101610069002126
:101C100000F00200009000981D20FFF7D3FB1D206C
:101C2000FFF7C0FB06B080BD90F83D1001291CBF36
:101C300001207047022180F83D10006841F2FF71D9
:101C4000C4F2000188420DDC40F2FF71C4F20001D1
:101C5000884215DCB0F1804F29D040F20041C4F237
:101C6000000122E040F2FF31C4F20101884212DC9F
:101C700041F60001C4F20001884218D0002112E0B0
:101C800040F60001C4F20001884210D040F6004145
:101C9000C4F2000109E044F20001C4F201018842EB
:101CA00005D040F20041C4F20101884206D18168AA
:101CB00001F00701062904BF00207047016841F0C8
:101CC000010101600020704780B590F83C20012A96
:101CD0004FF0020200F0C280012380F83C3080F80F
:101CE0003D20D0F800C04FF67772DCF8083023EAC8
:101CF0000202CCF808200B684F2B28DC1F2B43DD99
:101D0000202B44D0302B42D0402B40F0A980D1F87A
:101D100004E0C968DCF82030DCF8202022F0010261
:101D2000CCF82020DCF8182022F0F00242EA011161
:101D300023F00A0242EA0E02CCF81810CCF8202058
:101D4000DCF8081041F0470121F030017DE06F2BF5
:101D500025DDB3F5005F46D0B3F5805F77D0702BFB
:101D60007ED1D1E901E3C968DCF8082043EA0E031B
:101D700022F47F4243EA01211143CCF80810DCF839
:101D8000081041F0770160E00BB1102B68D1DCF84E
:101D9000081021F07001194341F0070155E0502B64
:101DA00034D0602B5CD1D1F804E0C968DCF8203075
:101DB00023F01003CCF82030DCF81830DCF82020B9
:101DC00023F4704322F0A00243EA013142EA0E12EA
:101DD000CCF81810CCF82020DCF8081041F067018E
:101DE00021F0100131E0D1E901E3C968DCF80820F5
:101DF00043EA0E0322F47F4243EA01211143CCF867
:101E00000810DCF8081041F480411EE0D1F804E02D
:101E1000C968DCF82030DCF8202022F00102CCF880
:101E20002020DCF8182022F0F00242EA011123F011
:101E30000A0242EA0E02CCF81810CCF82020DCF896
:101E4000081041F0570121F02001CCF808100022C1
:101E5000012180F83D10002180F83C10104680BD23
:101E60000122F5E7002804BF012070472DE9F04763
:101E7000044690F83D000D4628B9002084F83C0047
:101E8000204600F049F8022084F83D00206844F222
:101E90000702816891438160211D01F0D1FB206818
:101EA0004FF6FF7881688269D0F820C0D5E9003EFE
:101EB000D5E9026A43EA0109AB6922EA080246EA67
:101EC00003234FF6FC46B343D5E9076742EA0A020B
:101ED00029691A4342EA062242EA01112CF0AA02B9
:101EE0006B6942EA0E0241EA073142EA0312C0F886
:101EF000089081610262012084F8460084F83E0067
:101F000084F83F0084F8420084F8430084F83D00E0
:101F10000020BDE8F087000080B586B00021059163
:101F2000CDE9031100680291B0F1804F019101D019
:101F300006B080BD43F630000091C4F20200026991
:101F400042F001020261026902F001020092009A6D
:101F50000091026842F001020260006800F0010096
:101F600000900098032001900220CDE90201012099
:101F7000059000200491C4F2020001A9FFF7B4F813
:101F800006B080BD80B590F83E2090F83F3090F8C4
:101F900042E090F843C0042909D0B1B9012A4FF0BA
:101FA000010208BFBEF1010F32D0104680BD012BE7
:101FB0004FF0010208BFBCF1010FF6D1022180F8F9
:101FC0003F1080F8431000681EE0012A4FF0010224
:101FD00008BF012BE9D1BEF1010FE6D1BCF1010F21
:101FE000E3D1022280F83E2080F83F2080F8422092
:101FF00080F8432089B10068016A21F00101016283
:10200000016A41F00101016210216FF0100208E045
:10201000022180F83E1080F84210006801216FF024
:102020000102036A1A400262026A114301620168F6
:10203000002241F001010160104680BD70470000A0
:10204000F0B590F83C30012B04BF0220F0BD4FEA00
:10205000B2020123032A80F83C3000F2C480DFE89A
:1020600002F0022442620368D1E900C5D1F80CE015
:102070001A6A41F2FF7722F001021A621A4652F8F8
:10208000186F1C6AC4F20007BB4272DC40F2FF7793
:10209000C4F20007BB427ADCB3F1804F00F08E80BF
:1020A00040F20047C4F2000786E00368D1E900E689
:1020B000D1E902C11A6A360222F010021A621A46E7
:1020C00052F8184F4FF2FF071D6ABE4324F47344C1
:1020D00061F30F3646EA040125F0A0040EF00A076A
:1020E00044EA07173CE00768D1E900C5D1E90231AD
:1020F0003A6A61F3071522F480723A623A4652F85E
:102100001C4F3E6A24F0F30445EA040126F42066DD
:102110000CF00A0546EA052611603E62116821F0BE
:102120000C0111605BE00368D1E900E6D1E902C16E
:102130001A6A360222F480521A621A4652F81C4F6A
:102140004FF2FF071D6ABE4324F4734461F30F3658
:1021500046EA040125F420440EF00A0744EA073752
:1021600011601F6211684FEA0C2321F44061116075
:1021700035E040F2FF37C4F20107BB4212DC41F602
:102180000007C4F20007BB4218D0002712E040F657
:102190000007C4F20007BB4210D040F60047C4F26B
:1021A000000709E044F20007C4F20107BB4205D072
:1021B00040F20047C4F20107BB4219D126F00306E2
:1021C000354324F00A070CF00A066EF3071537446E
:1021D0009D611F629F6927F00C079F618B681168E2
:1021E000194300231160002180F83C101846F0BD0F
:1021F00046F00105E5E70000002804BF0120704714
:1022000010B5044690F83D0028B9002084F83C0041
:10221000204600F01FF8022084F83D002068211DB0
:1022200001F00EFA012084F8460084F83E0084F89C
:102230003F0084F8400084F8410084F8420084F8AC
:10224000430084F8440084F8450084F83D000020F1
:1022500010BD00007047000041B108290BD00429CF
:102260000ED100F13F0200F143030DE000F13E0208
:1022700000F1420308E000F1400200F1440303E0F2
:1022800000F1410200F1450312781B78012A4FF05A
:10229000010208BF012B01D010467047022271B124
:1022A000082917D0042920D180F83F2080F8432046
:1022B0004FEAB103032B4FF00102EDD81FE080F885
:1022C0003E2080F842204FEAB103032B4FF0010279
:1022D000E2D814E080F8402080F844204FEAB103AF
:1022E000032B4FF00102D7D809E080F8412080F895
:1022F00045204FEAB103032B4FF00102CCD843F63F
:10230000B83C0068C0F6000C5CF823C0C36801F05C
:102310001F0143EA0C03C360036A02FA01F123EAD6
:1023200001020262026A114341F2FF72C4F200022A
:10233000904201620DDC40F2FF71C4F2000188425C
:1023400015DCB0F1804F29D040F20041C4F2000109
:1023500022E040F2FF31C4F20101884212DC41F672
:102360000001C4F20001884218D0002112E040F6BA
:102370000001C4F20001884210D040F60041C4F2CE
:10238000000109E044F20001C4F20101884205D0D5
:1023900040F20041C4F2010188420CD1816801F091
:1023A0000701062904BF00207047016841F00101C0
:1023B0000160002070470168002241F001010160C6
:1023C0001046704710B5016804460869800744BF8D
:1023D000C8685FEA807038D40869400744BFC8689D
:1023E0005FEA40703DD40869000744BFC8685FEAEF
:1023F000007043D40869C00644BFC8685FEAC06083
:1024000048D40869C0071CBFC8685FEAC0704ED1D5
:102410000869000644BFC8685FEA00604FD40869D5
:10242000400644BFC8685FEA406050D4086980062F
:1024300046BFC8685FEA806010BD6FF0200220468A
:102440000A61BDE81040FFF705BB6FF002000861AC
:10245000012020778869800741D02046FFF7EEFDF4
:1024600043E06FF00400086102202077886910F4CF
:10247000407F3ED02046FFF7E1FD40E06FF00800CE
:10248000086104202077C86980073CD02046FFF708
:10249000D5FD3EE06FF01000086108202077C86984
:1024A00010F4407F39D02046FFF7C8FD3BE06FF0C5
:1024B00001000861204600F033FA2168A8E76FF0B8
:1024C000800008612046FFF7C3FA2168A7E76FF094
:1024D00040000861204600F025FA2168A6E7204662
:1024E00000F026F8204600F07DF9216800202077D2
:1024F00072E7204600F01CF8204600F073F92168CE
:10250000002020776FE7204600F012F8204600F008
:1025100069F92168002020776CE7204600F008F870
:10252000204600F05FF921680020207769E700006D
:10253000704700002DE9F04190F83C30012B04BFBA
:102540000220BDE8F0814FEAB2020123032A80F89D
:102550003C3000F2F780DFE802F0023F7FC0036802
:102560001A6A22F001021A621A461C6AD3F804C0E1
:1025700052F8186F0D6826F073068F6846EA050E4C
:1025800040F2004624F0020443F48065C4F20106E0
:10259000B54244EA070405D1CF6824F00C0427F0C3
:1025A00004073C43B54206D1D1E905652CF44077D8
:1025B000374347EA050CC3F804C0C3F818E04F6876
:1025C00009695F631C629F6947F008079F619F6903
:1025D00027F004079F61B1E0036840F200481A6ADF
:1025E000C4F2010822F010021A621A461D6AD3F8DA
:1025F00004C052F8187F0E6827F4E6478C6847EA53
:10260000062E25F0200743F48065454547EA04146B
:1026100007D1CF686FF0400624F0C00406EA071621
:102620003443454507D1D1E905652CF4406747EAB5
:10263000860747EA850CC3F804C0C3F818E04F6862
:1026400009699F631C629F6947F400679F619F69E6
:1026500027F480679F6170E0036840F200481A6ABF
:10266000C4F2010822F480721A621A461D6AD3F875
:1026700004C052F81C7F0E6827F073078C6847EA85
:10268000060E25F4007743F48065454547EA0424A7
:1026900008D1CF6840F2FF463F0224F4406427EAA5
:1026A00006063443454507D1D1E905652CF440576A
:1026B00047EA061747EA051CC3F804C0C3F81CE044
:1026C0004F680969DF631C62DF6947F00807DF6153
:1026D000DF6927F00407DF6130E0036840F200475C
:1026E0001A6A43F4806522F480521A621A46D3F8BB
:1026F00020C05C6852F81C6FC4F20107BD420F682D
:1027000026F4E6468D6846EA07272CF4005646EA8A
:10271000053604D14D6924F4804444EA85145C6094
:10272000DF614F6809691F641E62DF6947F4006753
:10273000DF61DF6927F48067DF61090213681943ED
:1027400000231160002180F83C101846BDE8F0819C
:10275000002804BF0120704710B5044690F83D00E2
:1027600028B9002084F83C00204600F01FF8022021
:1027700084F83D002068211D00F062FF012084F8EC
:10278000460084F83E0084F83F0084F8400084F856
:10279000410084F8420084F8430084F8440084F83F
:1027A000450084F83D00002010BD000081B00068A5
:1027B00040F60001C4F20001884201D001B0704728
:1027C0000020009043F64000C4F20200016841F08E
:1027D00004010160006800F004000090009801B05E
:1027E000704700007047000041B1082909D0042952
:1027F00014BF00F1410200F13F0204E000F13E028B
:1028000001E000F140021278012A1CBF012070474C
:10281000022241B1082909D0042914BF80F84120BF
:1028200080F83F2004E080F83E2001E080F840205E
:10283000006801F01F010122036A02FA01F123EA94
:1028400001020262026A0A4341F2FF71C4F200010E
:10285000884202620FDC40F2FF71C4F2000188423C
:102860001BDCB0F1804F4DD040F20041C4F20001BA
:10287000884247D04DE040F2FF32C4F2010290425C
:1028800018DC41F60003C4F2000398423AD000235A
:10289000C4F20103984219D03BE040F60001C4F2B3
:1028A000000188422ED040F60041C4F20001884267
:1028B00028D02EE044F20003C4F20103984221D054
:1028C00040F20043C4F20103984222D1436C884293
:1028D00043F400434364BEDD904207DC41F600014F
:1028E000C4F2000188420DD0002107E044F200014B
:1028F000C4F20101884205D040F20041C4F2010156
:10290000884206D1816801F00701062904BF002032
:102910007047016841F0010101600020704700002C
:1029200070470000704700007047000070470000CB
:10293000F0B581B0044600680168C268456901F0DD
:102940002F03202B02F0200306D12BB1204601B02B
:10295000BDE8F04000F016BF5FEA017C07D005F04B
:10296000010E12F4907F8EF001052FD175B3236B09
:102970001140CA0618D5012B16D10021009101681B
:1029800000914168009100994169490600F18281F6
:10299000A18DE28DE38D002B1CBF891A5FEA0142F5
:1029A00040F0FD8001B0F0BD0A0600F12B8249061F
:1029B000F8D5C16821F04001C1602021204684F88B
:1029C0003D1001B0BDE8F04000F056BBCE0718BF87
:1029D00012F4807603D0266C46F00106266401F0DE
:1029E0000407012686EA97072F4303D1276C47F097
:1029F0000207276401F0020786EA5706354303D130
:102A0000256C45F00405256453EA0E0318BF012325
:102A1000BCF1000F04D51BB1236C43F00803236401
:102A2000236C002BBED01140890603D5204600F050
:102A3000A9FE20684169226C01F0400102F0080201
:102A4000891800F0F08100BF50E8030F216820F4DE
:102A5000907041E80302C2B3206850E8030F216878
:102A600020F4907041E803027AB3206850E8030F25
:102A7000216820F4907041E8030232B3206850E8E6
:102A8000030F216820F4907041E80302EAB1206846
:102A9000DAE700BF206850E8050F216820F0010048
:102AA00041E80502DAB1206850E8050F216820F0FE
:102AB000010041E8050292B1206850E8050F216845
:102AC00020F0010041E805024AB1206850E8050FF6
:102AD000216820F0010041E80502002ADAD1206BCC
:102AE000012824D1206850E8030F216820F010004D
:102AF00041E80302DAB1206850E8030F216820F0B2
:102B0000100041E8030292B1206850E8030F2168E9
:102B100020F0100041E803024AB1206850E8030F9A
:102B2000216820F0100041E80302002ADAD12020B9
:102B300084F83E000020206320684169490640F186
:102B40008B8150E8050F216820F0400041E8050224
:102B5000002A00F06F81206850E8050F216820F0FE
:102B6000400041E80502002A00F06481206850E836
:102B7000050F216820F0400041E80502002A00F01E
:102B80005981206850E8050F216820F0400041E895
:102B90000502002A00F04E812068D2E7206850E844
:102BA000030F226820F4907042E80303BBB320684F
:102BB00050E8030F226820F4907042E8030373B3D7
:102BC000206850E8030F226820F4907042E8030365
:102BD0002BB3206850E8030F226820F4907042E87D
:102BE0000303002BDAD11AE0206850E8050F2268B1
:102BF00020F0010042E80503DBB1206850E8050F32
:102C0000226820F0010042E8050393B1206850E8F3
:102C1000050F226820F0010042E805034BB120684F
:102C200050E8050F226820F0010042E80503002B60
:102C3000DAD1202084F83E0000202063206850E88C
:102C4000030F226820F0100042E80303DBB1206884
:102C500050E8030F226820F0100042E8030393B10C
:102C6000206850E8030F226820F0100042E80303B8
:102C70004BB1206850E8030F226820F0100042E8B2
:102C80000303002BDAD189B2204601B0BDE8F04041
:102C9000FFF74ABEA26B11684B689EB2002E3FF44C
:102CA00081AEA18D8E42BFF47DAEE385D269B2F5CF
:102CB000807F00F09E8050E8030F216820F4807030
:102CC00041E80302E2B1206850E8030F216820F4D4
:102CD000807041E803029AB1206850E8030F216830
:102CE00020F4807041E8030252B1206850E8030FDD
:102CF000216820F4807041E803020AB12068DAE715
:102D0000206850E8050F216820F0010041E8050225
:102D1000BAB3206850E8050F216820F0010041E8AF
:102D2000050272B3206850E8050F216820F0010009
:102D300041E805022AB3206850E8050F216820F019
:102D4000010041E80502002ADAD11AE0206850E8C3
:102D5000050F216820F0400041E80502DAB1206843
:102D600050E8050F216820F0400041E8050292B1CB
:102D7000206850E8050F216820F0400041E8050276
:102D80004AB1206850E8050F216820F0400041E872
:102D90000502002ADAD1202084F83E0000202063BA
:102DA000206850E8030F216820F0100041E803027A
:102DB000DAB1206850E8030F216820F0100041E8E4
:102DC000030292B1206850E8030F216820F0100040
:102DD00041E803024AB1206850E8030F216820F05F
:102DE000100041E80302002ADAD1A06BFDF732FFA0
:102DF000A18DE08D081A81B2204601B0BDE8F040F7
:102E0000FFF792BD94F83D1021297FF4CBADA16866
:102E1000B1F5805F01D1216921B3216A4A1C226288
:102E20000978416025E02046FFF780FD00202064FE
:102E300001B0F0BDA06B78B143F27971C0F600012A
:102E40000165FDF74FFF00283FF4ACADA06B016DAD
:102E500001B0BDE8F0400847204601B0BDE8F040B1
:102E6000FFF764BD216A31F8022B6FF35F224260E5
:102E70002162E18C01390A04E1847FF493ADC168D9
:102E800021F08001C160C16841F04001C16001B022
:102E9000F0BD0000002804BF0120704710B50446B3
:102EA00090F83D0028B9002084F83C00204600F04E
:102EB00021F8242084F83D002068C16821F40051E5
:102EC000C160204600F0DCFC2068016921F49041DB
:102ED0000161416921F02A014161C16841F4005159
:102EE000C16000202021206484F83D1084F83E1049
:102EF00010BD000070B586B0002604460596CDE9E9
:102F0000036644F200402168C4F200008142029648
:102F1000019601D006B070BD43F630010096C4F2B0
:102F200002010A6900F5DE3042F400320A610A69E2
:102F300002F400320092009A00960A6842F0010200
:102F40000A60096801F00101009100990C210191CA
:102F50000221CDE90216032104910721059101A95F
:102F6000FEF7C2F840F2A41546F2A000C2F2000536
:102F7000C4F202004FF0006140224FF480634FF42E
:102F8000807C85E847002846C5E90436C5E9066C1B
:102F9000C5E90866FDF798FF002818BFFDF7AAFBF2
:102FA0002620002100226563AC63FEF70BFA262081
:102FB000FEF7F8F906B070BD90F83E30202B0BD12B
:102FC00000294FF0010318BF002A01D118467047AD
:102FD00090F83C30012B01D102207047002303639D
:102FE000816222218285C285036480F83E100269D5
:102FF000016880F83C301AB1C86840F48070C8603D
:103000004869002340F001004861C86840F0200092
:10301000C86018467047000040F27000C2F200001D
:1030200000F1380140F22430C2F200000422FFF720
:10303000C3BF0000034690F83D0020280AD10029B4
:103040004FF0010018BF002A00D1704793F83C00F0
:10305000012801D1022070471962002021219A84A1
:10306000DA84186483F83D10196883F83C00CA6854
:1030700042F08002CA60704770470000FEE700001F
:1030800010B584B040F2FC000021C2F2000042F210
:10309000000C4FF080534FF00062C4F2010C012489
:1030A000017680F82010C0E90A230222CDE902113E
:1030B000CDE90011C26180F83010C0E900C1C0E95B
:1030C0000211C0E90441FDF7E1FB002818BFFDF73C
:1030D00011FB0420CDE9000440F2FC00C2F2000024
:1030E00069460294FDF70CFB002818BFFDF702FBB0
:1030F0000A2000900220019040F2FC00C2F2000081
:103100006946FDF7FDFA002818BFFDF7F3FA04B091
:1031100010BD000080B582B0002043F63001019060
:10312000C4F202010A6842F400120A600A6802F45A
:1031300000120192019A00900868002240F4800079
:1031400008600868002100F48000009000981120B9
:10315000FEF738F91120FEF725F93820002100226A
:10316000FEF730F9382002B0BDE88040FEF71AB90A
:103170002DE9F04F87B0002443F63000CDE9054437
:103180000194C4F20200016840F6000841F0040115
:1031900001600168C4F2020801F004010191019983
:1031A00001940168A8F5006641F0800101600168A2
:1031B000002201F0800101910199019401684FF40E
:1031C000B07B41F001010160016801F00101019152
:1031D00001990194016841F00201016000684FF417
:1031E000B07100F00200019001983046FEF762F8DD
:1031F000A8F5806528464FF4A05100224FF4A05A4C
:10320000FEF758F84046C02100224FF0C009FEF7F3
:1032100051F84FF4005002904FF4041002AFCDE982
:10322000030440463946FDF75FFFCDF808B04FF084
:10323000010B30463946CDE903B40594FDF754FF40
:1032400028463946CDE902ABCDE90444FDF74CFFF1
:1032500040463946CDE9029BCDE90444FDF744FFE1
:1032600007B0BDE8F08F000010B58AB040F204202E
:1032700000220021C2F20000C4F201028F234FF6A7
:10328000FF74CDE90811CDE90611CDE90411CDE9AE
:103290000211CDE90011C0E90023C0E90214C0E920
:1032A00004118161FEF734FC002818BFFDF722FAF3
:1032B0004FF48050069040F20420C2F2000006A9AC
:1032C000FEF702FD002818BFFDF714FA40F20420B3
:1032D000C2F20000FEF790FF002818BFFDF70AFABF
:1032E00040F204200024C2F2000004A9CDE9044405
:1032F000FEF7B2FB002818BFFDF7FCF90120019092
:103300000C200094CDE9020440F20420C2F2000037
:1033100069460422FEF794FE002818BFFDF7EAF97B
:103320000AB010BD10B58CB040F24C200024C2F29F
:1033300000004FF080414FF0FF32C0E9001403213C
:10334000C0E90242CDE9031401210F22CDE90514A1
:10335000CDE90724CDE9091403A9CDE900440461AE
:1033600084610B92FEF77EFD002818BFFDF7C2F9BD
:1033700040F24C20C2F200006946CDE90044FEF75D
:103380006BFB002818BFFDF7B5F90CB010BD0000AD
:1033900080B586B040F2942040F200420021C2F293
:1033A0000000C4F200028F2340F6C31CCDE90411D3
:1033B000CDE90211CDE90011C0E90023C0E9021CEA
:1033C00001618161FEF7A4FB002818BFFDF792F9A7
:1033D0004FF48050029040F29420C2F2000002A903
:1033E000FEF772FC002818BFFDF784F9202000903A
:1033F0000020019040F29420C2F200006946FEF7DE
:103400002BFB002818BFFDF775F906B080BD000042
:1034100070B590B040F6000540F2DC20C4F2000523
:103420000024C2F2000040F2632177220994CDE922
:103430000744CDE90544CDE90344CDE90144C0E9A1
:103440000051C0E9024204618461FFF781F900285C
:1034500018BFFDF74FF940F2DC20C2F2000008A9C6
:10346000CDE90844FEF7F8FA002818BFFDF742F945
:1034700040F2DC246020C2F200040190002601A981
:1034800020460022CDE902660596FFF753F8002892
:1034900018BFFDF72FF920680F96A842CDE90D66F9
:1034A0000C960B9601D010B070BD002043F6300191
:1034B0000A90C4F202010A6842F002020A60096836
:1034C00001F002010A910A9940210B910221CDE9F4
:1034D0000C10CDE90E0105F5FE300BA9FDF704FE39
:1034E00010B070BD80B540F2243044F20041C2F209
:1034F0000000C4F2000100234FF00C0C4FF46122D5
:1035000080E80E00C0E90333C0E905C3C361FFF7DB
:10351000C1FC002808BF80BDBDE88040FDF7EAB8C7
:10352000FEE70000FEE70000704700007047000063
:1035300080B5FDF7CBFE40F2B800C2F20000016892
:1035400040F2B4020131C2F200021368016040F29D
:103550007001C2F20001581C0B681060581C086012
:1035600080BD0000B0B594B0002443F640000C9438
:10357000CDE90A44CDE908440694CDE90444CDE9F7
:1035800002440194C4F202000168022541F0805116
:103590000160006800F080500190019847F200003F
:1035A0000194C4F20000016841F4404101600068E8
:1035B00000F440400190019801200A9010200795E6
:1035C0000B90CDE90D540F904FF49070CDE910059C
:1035D00007A8CDE91255FEF759F820B1EFF3108096
:1035E00072B600BFFEE70F20CDE902054FF4A050F0
:1035F00005904FF48050069002A804210494FDF732
:103600001DFF20B1EFF3108072B600BFFEE714B0CB
:10361000B0BD00004EF68850CEF20000016841F4C3
:10362000700101607047000040F20420C2F2000007
:10363000FEF7C8BE40F29420C2F20000FEF7C2BE00
:1036400010B540F6FF3E0368C4F2000E40F2004C95
:103650007045C4F2010C26DCB0F1804F30D040F24E
:103660000042C4F2000290422AD040F60002C4F2A6
:103670000002904224D041F6FF72C4F20002904250
:1036800028DC70453ADCB0F1804F5CD040F200425B
:10369000C4F20002904256D040F60002C4F200028A
:1036A000904250D053E040F60042C4F200029042F3
:1036B00006D0604504D00022C4F201029042DAD163
:1036C0004A6823F07003134341F6FF72C4F200020C
:1036D0009042D6DD43F6FF72C4F20102904220DC34
:1036E00042F20002C4F2000290422CD00022C4F246
:1036F0000102904227D0604525D028E040F60042E4
:10370000C4F2000290421ED041F60002C4F2000250
:10371000904218D041F60042C4F20002904212D00A
:1037200015E044F20002C4F2010290420BD044F6CC
:103730000002C4F20102904205D044F20042C4F2F9
:103740000102904203D1CA6823F44073134323F06B
:1037500080024B69D1F800E08C681A430260C462B1
:1037600040F48062C0F828E0624504BF0969016343
:103770000121416110BD0000806B0021C185C18421
:10378000FFF7D4B881B090F83E10222920D1836889
:10379000B3F5805F08D10169002964D000F12801E8
:1037A0000A6803685B680AE0014651F8282F13B9DC
:1037B0000369002BF5D003685B6803F07F03137087
:1037C0000A6801320A60C18D01390A04C18501D03D
:1037D00001B070470168CA6822F02002CA60CA6856
:1037E00022F48072CA604A6922F001024A612022F2
:1037F00080F83E20026B012A3ED10022026300BF06
:1038000051E8031F026821F0100142E80313016828
:10381000DBB151E8031F026821F0100142E80313F5
:10382000016893B151E8031F026821F0100142E8DA
:10383000031301684BB151E8031F026821F0100126
:1038400042E803130168002BDAD10A68D20606D5D4
:10385000002200920A680092496800910099818DC7
:1038600001B0FFF761B80168826A49686FF35F21B0
:1038700022F8021B8262A6E701B0FFF7CDBB000071
:1038800010B504460068D4E902C22369016921F435
:10389000405111430161626943EA0C01E36911433C
:1038A000C268194349F20C639A431143C1604169EC
:1038B000A26921F4407141F20043114340F4806257
:1038C000C4F201039A42416102D1FDF77BFE01E09F
:1038D000FDF764FEE16963681922B1F5004FA0FBB2
:1038E00002011FD15A00DB0FFCF7E0FC48F21F5128
:1038F000C5F2EB11A0FB01235A096FF0630302FB31
:103900000300322303EBC000A0FB01014FF4F87069
:1039100000EA111000EB0210C1F3421122680843C3
:10392000906010BD9A009B0FFCF7C0FC48F21F513D
:10393000C5F2EB11A0FB01235A096FF0630302FBF0
:103940000300322303EB0010A0FB0101F02000EA8A
:10395000511000EB0210C1F343112268084390603C
:1039600010BD000040F22430C2F20000FEF7E0BFBC
:10397000FEE7000082B00025C4F20205FDF7B4FCAA
:10398000FFF7F0FDFFF7F4FBFFF7C4FBFFF778FB51
:10399000FFF76AFCFFF7C6FCFFF73AFDFFF7A2FD51
:1039A000FFF7F6FC28464FF4807100220024FDF753
:1039B00081FC05F580604FF480610122FDF77AFCFF
:1039C0006420FDF77DFB40F24C20C2F200003C2158
:1039D000FEF7D8FA40F2DC26C2F20006304600219B
:1039E000FEF702FF40F20427C2F200073846042126
:1039F000FEF732FC3846FEF717F940F27008C2F2C3
:103A0000000840F2243008F13801C2F2000004221C
:103A1000FFF7D2FA40F29425C2F200054720686011
:103A20006320E8602846FEF773F82846FEF7FCF8A6
:103A300040F2FC0008F13001C2F200000222FDF762
:103A400041F840F24410C2F20000006840F2080958
:103A500001689FED458A21F00801016030689FED03
:103A6000439A9FED43AA40F2BC0640F2000AC2F21C
:103A70000009C2F200060FF2FC0BC4F2020A446312
:103A80003868416AD9F800209142F9D94462504619
:103A900020210122FDF70EFCD8F80400D8F8101000
:103AA00000EB8000430040F2DC20C2F2000000681E
:103AB0009AB2C8F80830426340F24C20C2F20000CB
:103AC0000068406A411A00EE101AC8F80C00B8EEFF
:103AD000400A20EE081A20EE092A88ED051A88ED22
:103AE000062AC8F81000D8E90C01D8F81C2020EEEE
:103AF0000A0A1044C8F81C00D8F81C000844C8F88A
:103B00001C00D8F81C0044F620614008C8F82000CA
:103B1000D8F824004843C8F82800C8F82440C8F85A
:103B20001C40BCEEC01A88ED0B1AD8F80020D8F85B
:103B30002050BCEEC00A304659468DED010A009572
:103B4000FCF72CFC3046FCF7ADFC82B240F224308E
:103B5000C2F200003146FFF76DFA504620210022E4
:103B6000FDF7A8FB8CE700BFCDCC4C3D7BD9A03E38
:103B7000D053FB4125752C25752C25752C25750DED
:103B80000A000000F1EE100A4FF6FF71C0F2C031DA
:103B900020EA010040F04070E1EE100A704700009A
:103BA00000000000000001020304060708090000ED
:103BB00000000102030400000200000004000000F5
:103BC0000800000010000000FDFFFFFFFBFFFFFFEB
:103BD000F7FFFFFFEFFFFFFF0006101600061016AD
:103BE000003C000800000020100000000002000857
:103BF000103C000810000020600900001C020008B2
:103C00000100000010000000871300000024F400F1
:04000005080001C529
:00000001FF
