:020000040800F2
:10000000580900206D020008892F0008352B0008D0
:10001000852F000849080008013900080000000089
:10002000000000000000000000000000BD2F0008DC
:100030002909000800000000B92F0008F12F00086E
:10004000870200088702000887020008870200086C
:10005000870200088702000887020008870200085C
:10006000870200088702000887020008870200084C
:10007000870200088702000887020008870200083C
:10008000870200084D0800083107000887020008B1
:10009000870200088702000887020008870200081C
:1000A000870200088702000887020008193100084B
:1000B000870200082931000887020008870200082B
:1000C00087020008870200088702000887020008EC
:1000D0008702000887020008F1380008870200083C
:1000E00087020008870200088702000887020008CC
:1000F00087020008870200088702000887020008BC
:1001000087020008870200088702000887020008AB
:10011000870200088702000887020008870200089B
:100120005D080008870200088702000887020008AF
:10013000870200080000000000000000870200089D
:10014000870200088702000887020008870200086B
:10015000870200088702000887020008870200085B
:10016000870200088702000887020008870200084B
:1001700087020008870200088702000800000000CC
:1001800000000000870200080000000000000000DE
:10019000870200080000000000000000870200083D
:1001A00000000000000000000000000087020008BE
:1001B00087020008870200088702000887020008FB
:1001C0008702000800F002F800F041F80AA090E869
:1001D000000C82448344AAF10107DA4501D100F002
:1001E00036F8AFF2090EBAE80F0013F0010F18BF8E
:1001F000FB1A43F0010318477039000090390000E2
:10020000103A24BF78C878C1FAD8520724BF30C842
:1002100030C144BF04680C60704700000023002414
:1002200000250026103A28BF78C1FBD8520728BF06
:1002300030C148BF0B607047752900F0F78000207F
:1002400070471FB503F077FC1FBD10B510BD00F05F
:10025000E8F91146FFF7F5FF03F08EFB00F006FA10
:1002600003B4FFF7F2FF03BC00F00EFA0948804721
:1002700009480047FEE7FEE7FEE7FEE7FEE7FEE788
:10028000FEE7FEE7FEE7FEE704480549054A064BA0
:100290007047000005310008C50100085803002020
:1002A00058090020580500205805002053EA020C88
:1002B00000F069802DE9F04B4FF00006002B1FBFC6
:1002C000B3FA83F503FA05F424FA05F65E4012BF8B
:1002D0001643B2FA82F502FA05F4C5F120051EBFF5
:1002E00022FA05FC44EA0C04203556EA044C4FEA95
:1002F000144418BF641C4FF000084FF000099042EE
:1003000071EB030C39D3002919BFB1FA81F701FA57
:1003100007F6B0FA80F700FA07F6C7F120071EBF0C
:1003200020FA07FC46EA0C062037B6FBF4FCA7EBE4
:100330000507103F07F01F0BCBF120062CFA06F63D
:100340000CFA0BFB44BFB3460026202FA4BF5E4629
:100350004FF0000B5BEA060C08BF4FF0010B19EBE6
:100360000B0948EB0608ABFB027C06FB02CC0BFB3F
:1003700003CCC01B71EB0C01C1E70B4602464146A2
:100380004846BDE8F08B13B5084318BF4FF0FF3067
:100390000146AFF30080BDE81C4070470FB41CB5A8
:1003A000074B06AA7B4469460090059800F021F9A6
:1003B0000020694600F030F91CBC5DF814FB000019
:1003C000710200002DE9F0410E4604460020206233
:1003D0002046E168884730B3252805D0D4E90121BB
:1003E0009047206A401CF2E7E168204600278847D2
:1003F000050018D0A5F14100192802D820354FF486
:1004000000673246294620462760FFF715FF40B1B6
:10041000012804D0F61D26F007060836D8E7361D59
:10042000D6E72846DAE7206ABDE8F0812DE9F041F9
:100430000646002410687529314616A510D0AFF382
:100440000080002802DA404213A507E031688A07DD
:1004500001D512A502E0490704D511A5012401E048
:10046000AFF3008000210A2206F1240709E0B0FB67
:10047000F2FCB0FBF2F302FB1C003030785418465B
:10048000491C0028F3D123462A463046BDE8F041F6
:1004900000F051B8000000002D0000002B0000000B
:1004A0002000000010B5431C02E010F8011B71B1E0
:1004B0008107FAD14FF0013202C88C1A8C4314EA3A
:1004C000C211F9D0C01A0A0603D0C01E10BDC01A4E
:1004D00010BD0A0401D0801E10BD0902FCD0401ED0
:1004E00010BD4FF0000200B51346944696462039E1
:1004F00022BFA0E80C50A0E80C50B1F12001BFF4DD
:10050000F7AF090728BFA0E80C5048BF0CC05DF842
:1005100004EB890028BF40F8042B08BF704748BF90
:1005200020F8022B11F0804F18BF00F8012B704704
:100530007047704770472DE9F0470D46994692463F
:10054000044600F124080168880604D5E06921F01A
:100550001001216000E00120A84201DD471B00E0FE
:100560000027A1697A1902EB0900081AA061207816
:10057000C00602D42046AFF30080002608E0D4E98C
:1005800001211AF806009047206A401C761C206260
:100590004E45F4DB2078C0060AD52046AFF3008034
:1005A00006E0D4E9012130209047206A401C2062F7
:1005B000381EA7F10107F4DC07E0D4E9012118F89F
:1005C00005009047206A401C2062281EA5F1010505
:1005D000F3DC2046AFF300802078000602D502202D
:1005E000BDE8F0870120FBE701694A1C0261087839
:1005F000704700B58FB0CDE9013100210591054963
:100600007944CDE9031011466846FFF7DBFE0FB0D1
:1006100000BD0000E5FFFFFF0A6802F8010B0A6059
:100620007047754600F02CF8AE4605006946534603
:1006300020F00700854618B020B5FFF725FEBDE87D
:1006400020404FF000064FF000074FF000084FF039
:10065000000BAC46ACE8C009ACE8C009ACE8C00986
:10066000ACE8C00921F007018D46704710B504467B
:10067000AFF300802046BDE81040FFF7F1BD000059
:10068000004870471000002001491820ABBEFEE76B
:10069000260002007047000080B50146806B036CA5
:1006A000026C13F0500F06D0D2060FD4806BC26CD0
:1006B0000846904780BD42F40071016401688A6871
:1006C00012F0405F05D000F0CDF980BD00F0E6F9F2
:1006D00080BD027E002AF6D1CA6A12F4700F02D0E1
:1006E0008A685205EFD44A6822F020024A60016C01
:1006F00021F480710164016CC904E4D4016C41F0FF
:100700000101016400F0AEF980BD000080B5806B8E
:1007100040210164416C41F00401416400F0BEF9E4
:1007200080BD000080B5806B00F0B6F980BD000090
:1007300080B540F2D800C2F2000000F0B1F980BDEF
:1007400010B542F20432C4F20102116821F44031C2
:100750001160D2F800C090E80A4043EA0C03C46874
:1007600013604A6822F480724A6002694B6843EA67
:1007700002224A604A6822F040724A604A6842EAAD
:100780000E024A608A6822F400628A608A68224304
:100790008A60826A8B68012423F070638B608B68A7
:1007A000C0F60074A24202D123F0405208E01A437E
:1007B0008A608A6822F040528A60C26A8B681A4353
:1007C0008A608A6822F002028A608A68037E90F852
:1007D000204042EA43028A604A6884B142F40062DF
:1007E0004A604A684EF2000322F460424A60426A5C
:1007F000CFF6FF734C6803EB4232224301E022F450
:1008000000624A60CA6A40F2000C22F47002CA62B6
:10081000C3694269CFF6F07CCC6A0CEB03532343E7
:10082000CB628B6823F400738B6090F830008B6888
:1008300043EA40208860886820F480608860886887
:1008400040EA8220886010BDFEE7000080B540F2DB
:100850008010C2F2000000F061FB80BD80B540F264
:100860002010C2F2000000F059FB80BDD0F800C09B
:100870006FF00F024AF6AB2352FA8CF2CAF6AA23A3
:100880000146A2FB0330000905A31B5C40F2FF30C8
:100890002CEA00005F2A88BF0430C1E916037047C4
:1008A00000061016000610168269816AB2F5005F14
:1008B00006D06AB9022912D0012914D0D1B90EE0AC
:1008C000032917D8DFE801F0020B020F012070475F
:1008D00003293CBF012070471CBF00207047C06A3D
:1008E000C0F300607047C06AA0F1C070B0FA80F039
:1008F000400970470020704780B5D0F800C0D0F89C
:1009000008E0DCF80000BEF1400F20F48020CCF8B5
:1009100000000846CCF8043004BF10460A46CCF864
:100920000800CCF80C2080BD70470000EFF3108069
:1009300072B600BFFEE700007047000070B581B0DE
:100940000022009290F83C20012A01D1022186E089
:100950000E6801221FFA86FC80F83C204FEA4C0208
:1009600012FA86F302680A2E32BF10321E3B0C3296
:100970004FF0070E15680EFA03F4A54315608D6855
:10098000146805FA03F3234313604968062906D85F
:10099000026801EB8101053902F134030AE00C29F8
:1009A00001EB8101026887BF413902F12C03233931
:1009B00002F130031F221C688A4024EA02021A60F6
:1009C0001A680CFA01F1114342F2043E1960C4F2B4
:1009D000010E0168122EAEF5417208BF914202D09D
:1009E000914239D10DE0DEF8003023F40003CEF857
:1009F0000030DEF8003043F48003CEF8003091423E
:100A00002AD11221C1F200018E4201D0112E23D130
:100A1000DEF800208E4222F48002CEF80020DEF8BC
:100A2000002042F40002CEF8002015D140F200016F
:100A3000C2F2000109684DF68362C4F21B32A1FBC9
:100A40000212910C01EB8101490000BF0091009955
:100A500011B100990139F9E7002180F83C100846EE
:100A600001B070BD80B540F24430C2F200000078A1
:100A700028B940F27000C2F200000021016040F28B
:100A8000D80040F27001C2F20000C2F2000102225E
:100A900000F040F980BD0000704700007047000082
:100AA00070B50446006806684568B10717D515F0AB
:100AB000200114D0216CC90603D4216C41F40071CB
:100AC0002164816811F0405F02D1217E002968D045
:100AD0002046FFF7C7FF20686FF012010160700722
:100AE00015D515F0800012D0206CC00603D4206C00
:100AF00040F4005020642068816811F4401F2FD01A
:100B00002046FFF719FF20686FF00C010160F00725
:100B100018BF15F0400013D1B00610D515F0806055
:100B200008BF70BD2068616C6FF0200541F00201C4
:100B3000616405602046FFF7B1FF2068056070BD65
:100B400020680068C007E7D0206C40F48030206443
:100B5000204600F067F820686FF001010160DBE7D4
:100B6000816B11F4401F02D081684905C8D44168E7
:100B70004905C5D4816811F0405FC1D1217E0029AB
:100B8000BED1416821F080014160206C20F480508A
:100B90002064206CC005B3D4206C40F001002064B8
:100BA000AEE7C16A11F4700F03D0816849053FF5C3
:100BB0008FAF416821F020014160206C20F48070EB
:100BC0002064206CC0043FF583AF206C40F001002E
:100BD00020647DE7B0B510B30446006C30B9204600
:100BE00000F022F80020606484F83C00206C0125AD
:100BF000C0060FD4206C41F20211884302302064F9
:100C00002046FFF79DFD00206064206C65F3010025
:100C100000252064002084F83C002846B0BD012057
:100C2000B0BD0000704700002DE9F04186B00026FD
:100C30000596CDE90366044642F200070068C4F257
:100C40000107B8420296019602D006B0BDE8F081D5
:100C500043F630000096C4F20200416901AD41F450
:100C60008071416141694FF0030801F48071009186
:100C700000990096016841F004010160016801F0EB
:100C80000401009100990096016841F001010160A2
:100C90000068294600F001000090009801200190B2
:100CA00007F56840CDE9028600F0ACFA1020CDE9E6
:100CB000010807F560402946039600F0A3FA40F2C8
:100CC000201546F21040C2F20005C4F202004FF4B3
:100CD0008061C5E9000605F110004FF480524FF421
:100CE0008043C5E902664EC02846C5E9086600F0A3
:100CF000DBF9002818BFFFF719FE1220002100229F
:100D0000A563AC6300F0D4FB122000F0CDFB06B06D
:100D1000BDE8F08170B582B004460020019094F8DF
:100D20003C00012802D1022002B070BD13460A46E1
:100D30000120216884F83C008868C00718D18868C1
:100D40004DF6836540F00100886040F20000C2F279
:100D500000000068C4F21B35A0FB0505A80C00EBE1
:100D6000400000BF0190019810B101980138F9E7E7
:100D70008868C00503D5886820F4807088608D6815
:100D8000206CED0707D140F010002064606C40F04B
:100D9000010060646CE040F20175A84300F58070CA
:100DA00020644868400504D5206C012565F30D30AA
:100DB0002064256C0020ED044FF0000544BF656CF5
:100DC00025F00605656484F83C00A06B40F2996547
:100DD00040F2257CC0F60005C0F6000CC0E90F5CAF
:100DE00040F20D75C0F60005C5646FF022050D6078
:100DF0004D6842F2043645F080654D608D68C4F25E
:100E0000010645F480758D604C3100F0B5F931680C
:100E10002068C906A6F541710AD0884228D14FF64C
:100E20000451CFF6FF71715811F0405F20D11BE0E3
:100E3000884215D042F20021C4F2010188420CD050
:100E400042F20011C4F20101884211D13168C90691
:100E500006D0A6F5827188420AD13168C90607D446
:100E6000816811F0405F03D1816841F08041816069
:100E7000002002B070BD000070B5866D044600F021
:100E80009BFA94F83510022925D105462068216C7B
:100E9000026822F016020260426922F0800242617A
:100EA00009B9A16C19B1016821F00801016001685C
:100EB00021F00101016000BF20680068C0070ED06A
:100EC00000F07AFA401B0628F6D320206065032044
:100ED00084F835000CE080206065012008E0E06DBA
:100EE0003F2101FA00F0B060012084F835000020B5
:100EF000002184F8341070BD90F83510022909D112
:100F0000052180F835100068016821F001010160B9
:100F1000002070478021416501207047F0B581B005
:100F200004460020009040F20000C2F20000026877
:100F3000D4E9166048F2B51337680821C1F64E337C
:100F400081403942A2FB03250CD0226813685B075D
:100F500008D5136823F004031360B160616D41F09C
:100F60000101616501218140394208D0226852693E
:100F7000120604D5B160616D41F002016165042182
:100F80008140394208D022681268920704D5B160C6
:100F9000616D41F00401616510218140394215D035
:100FA00020680268120711D5B16002680168520317
:100FB00006D4C90506D4016821F00801016001E0EA
:100FC000080342D4216C09B120468847E16D2020F6
:100FD00000FA01F23A4244D020680368DB0640D5AB
:100FE000B26094F835300268052B1ED122F016024B
:100FF0000260426922F080024261226C0AB9A26C4E
:101000001AB1026822F0080202603F208840B060F6
:10101000012084F83500216D0020002984F8340077
:1010200040D02046884701B0F0BD0168520310D47B
:10103000C90512D4016821F010010160012084F873
:101040003500002084F8340007E0A16C0029BBD1F2
:10105000BCE7080301D4616C00E0E16B09B12046F4
:101060008847606DF0B1606DC00717D0052084F827
:1010700035002068A90A026822F00102026000BF60
:10108000009A01328A42009202D80268D207F7D150
:10109000012084F83500002084F83400E16C09B1A7
:1010A0002046884701B0F0BD2DE9F041044600F02C
:1010B00083F9C4B10546022084F835000020216878
:1010C00084F83400086820F0010008602668306861
:1010D000C0070BD000F070F9401B0528F6D903219A
:1010E0002022032042E00120BDE8F081306848F270
:1010F0003F01CFF21001251D00EA010C2ECDD4E9ED
:10110000050E41EA0C01114319432943D4E907783C
:10111000084340EA0E01606A3943042841EA0801A5
:1011200003D1D4E90B2311431943316071690428B9
:1011300021F0070141EA00050CD1D4E90A1045EA83
:10114000010538B12046FFF7AFFB18B1012140225D
:1011500001200BE020467561FFF788FBE16D3F221F
:1011600002FA01F18160002201210020626584F809
:101170003510BDE8F0810000B0B5044690F83400A9
:10118000012828D0012084F83400A56D94F835009A
:1011900001281DD1022084F835000020606520461A
:1011A000FFF7AAFBE26D3F23206803FA02F2216CED
:1011B000AA60026842F01602026019B1016841F0AB
:1011C00008010160016841F0010101600020B0BD2B
:1011D000002084F834000220B0BD0000B0B5044601
:1011E00000F0EAF8054640F20400C2F20000007880
:1011F000611C18BF044400BF00F0DEF8401BA04291
:10120000FAD3B0BD2DE9F04F83B000F13E4202F1B8
:10121000FF724FEAB22241F600070192C4F20207C0
:1012200007224FF0010E00254FF0000A4FF0000892
:10123000B84208BF062200920AE000BF08F1010888
:101240000AF1040AB8F1100F05F1020500F0A480BC
:101250000C680EFA08FB14EA0B09EFD04C6804F096
:10126000030CACF1010EBEF1010F11D80322876807
:1012700002FA05F6CA68B743AA403A438260426858
:10128000C4F3001722EA0B0207FA08F73A43426058
:10129000BCF1030F1CD0C26803238E6803FA05F764
:1012A000BA4306FA05F73A43BCF1020FC2600FD108
:1012B0006FF0030202EA580202440AF01C060F23F0
:1012C000176A03FA06F40B69A743B3403B43136262
:1012D000026803234F68AB409A4307F00303AB4017
:1012E0001A4317F4403F4FF0010E0260A6D00022CF
:1012F00043F644030292C4F202031A6843F6004420
:1013000042F480421A601A68C4F2010402F4804276
:101310000292029A28F003024FF6084B2244CFF6BD
:10132000FF7B52F80B300AF00C070F26BE4023EA71
:10133000060C019B009E062B38BF1E4606FA07F7D7
:1013400047EA0C0342F80B30A2684B6842EA0907EF
:1013500043F60C4CDE0258BF22EA0907A760C4F22C
:10136000010CDCF800209E0242EA090758BF22EA7D
:101370000907CCF8007062689E0342EA090758BF6B
:1013800022EA090767602268DB0342EA090358BFC3
:1013900022EA0903236051E703B0BDE8F08F0000A3
:1013A0000069084018BF012070470000002A08BFEC
:1013B000090481617047000040F25430C2F200001D
:1013C0000068704740F2040040F25431C2F200005D
:1013D000C2F2000100780A681044086070470000FB
:1013E00080B543F60040C4F20200016841F4007188
:1013F0000160016841F480610160016841F480711D
:101400000160032000F064F8002000F005F800F00F
:101410002BF8002080BD0000B0B540F20402C2F2FB
:10142000000240F200011278C2F200014FF47A7318
:101430000968B3FBF2F20446B1FBF2F1084600F092
:1014400037FB0F2C4FF001050CD858B94FF0FF3087
:1014500021460022002500F02BF840F20800C2F2DD
:10146000000004602846B0BD80B582B0002043F67D
:1014700040010190C4F202014A6842F480424A608D
:101480004A6802F480420192019A0090086840F094
:1014900080500860086800F0805000900098072095
:1014A00000F016F802B080BD80B502F02BFA80BDC6
:1014B00070B514460D46064602F034FA2946224617
:1014C00001F064FD0146304602F034FA70BD0000C0
:1014D00080B502F041FA80BD2DE9F041002800F00E
:1014E0008B8043F60808C4F202080446D8F8F803D3
:1014F0000D4600F00F00884207D288F8F853D8F85C
:10150000F80300F00F00A84276D12068810717D5B4
:10151000410705D5D8F8001041F4E051C8F8001093
:10152000010705D5D8F8001041F46041C8F8001053
:10153000D8F80010A26821F0F0011143C8F800109B
:10154000C0073FD1D8F8F80300F00F00A84207D930
:1015500088F8F853D8F8F80300F00F00A8424BD1F0
:101560002068410707D5D8F80010E26821F4E0515F
:101570001143C8F80010000708D5D8F80000216909
:1015800020F4604040EAC100C8F8000000F07EF896
:10159000D8F8001043F65032C1F30311C0F6000230
:1015A000515C40F2000220FA01F140F20800C2F260
:1015B00000000068C2F200021160FFF72DFF00205A
:1015C000BDE8F0816068811E022907D258F8081C26
:1015D00089015CBF0120BDE8F08110E0012807D13E
:1015E00058F8081C89035CBF0120BDE8F08106E0C3
:1015F00058F8081C890702D40120BDE8F081D8F80A
:10160000001021F003010843C8F80000FFF7D4FEE2
:10161000064641F2883700BFD8F80000616800F044
:101620000C00B0EB810F8DD0FFF7C6FE801BB842D7
:10163000F2D90320BDE8F08140F20000C2F20000C0
:101640000068704780B5FFF7F7FF43F60801C4F262
:101650000201096843F66032C1F38221C0F600023C
:10166000515CC84080BD000080B5FFF7E5FF43F640
:101670000801C4F20201096843F66032C1F3423145
:10168000C0F60002515CC84080BD000010B543F6B2
:101690000404C4F202046068C0F3810142F2004015
:1016A000C0F2F400DFE801F04102071641F2002029
:1016B000C0F27A0010BD216801F03F022168236862
:1016C0004902C3F3881114D4A1FB00010023FEF7E3
:1016D000EDFD15E0216801F03F0221682368490211
:1016E000C3F3881115D4A1FB00010023FEF7DEFD32
:1016F00016E041F20020C0F27A004843B0FBF2F05D
:1017000021680222C1F3014102EB4101B0FBF1F07B
:1017100010BD41F20020C0F27A004843B0FBF2F065
:101720002168C1F30271B0FBF1F010BD2DE9F04169
:1017300082B0002800F094800446007843F600064A
:10174000C007C4F202062AD0B06800F00C000428DA
:101750001FD0B06800F00C00082802D17068400269
:1017600017D4B06800F00C000C2802D17068400259
:101770000FD46568B5F5803F07D03068B5F5A02F68
:1017800040F04B8140F480203060306840F480307D
:1017900049E13068800302D56068002860D0207875
:1017A000800722D5B06810F00C0F11D0B06800F09F
:1017B0000C00082802D17068400209D5B06800F01A
:1017C0000C000C2840F09E807068400200F19A8066
:1017D0003068800702D5E068012841D1306821696E
:1017E00020F0F80040EAC1003060207800073BD4C8
:1017F000207840074FD4A56985B3B06800F00C008D
:10180000082840F0A780012D2AD07068E16900F413
:1018100080028A4224D1216A00F03F028A421FD10D
:1018200047F6C071626A0140B1EB821F18D1A16A0C
:101830004FF6FF73C903994300F44032A1F580319C
:101840008A420DD1E16A00F07062B2EB016F07D1FC
:10185000216B00F0E040B0EB017F01D1002024E1DA
:10186000012002B0BDE8F0816069002840F200006C
:10187000C4F247205ED00121C0F8801EFFF79CFD16
:10188000054600BF706F8007B2D4FFF795FD401B7F
:101890000228F7D9AAE0306C4FF00008C0000CD441
:1018A000CDF80480306C4FF0010840F08050306477
:1018B000306C00F080500190019847F20007C4F2AC
:1018C00000073868C00510D4386840F4807038606C
:1018D000FFF772FD054600BF3868C00505D4FFF765
:1018E0006BFD401B0228F7D980E0A568012D05D0CB
:1018F000306F052D64D140F004003067306F40F048
:10190000010063E0E068002846D00020C4F24720D0
:1019100001210160FFF750FD054600BF30688007D8
:101920003FF55CAFFFF748FD401B02284FF0030076
:10193000F4D9BAE00021C0F8801EFFF73DFD05464E
:10194000706F80077FF554AFFFF736FD401B02280C
:10195000F6D94BE00027C4F2472700203866FFF78E
:101960002BFD022D05460BD13068800179D5FFF79C
:1019700023FD401B02284FF00300F5D995E000BF7E
:10198000306880017FF56AAFFFF716FD401B022823
:101990004FF00300F4D988E00020C4F24720002172
:1019A0000160FFF709FD0546306880077FF51DAF30
:1019B000FFF702FD401B02284FF00300F4D974E04A
:1019C00020F001003067306F20F004003067FFF72F
:1019D000F3FC002D054641F2883712D0306F8007A6
:1019E00012D4FFF7E9FC401BB842F7D9032002B03C
:1019F000BDE8F081FFF7E0FC401BB8424FF0030068
:101A000053D8306F8007F5D4B8F1000F3FF4F3AE30
:101A1000306C20F080503064EDE620F4803030608F
:101A2000306820F480203060FFF7C6FC002D0546AA
:101A300013D000BF306880033FF5B1AEFFF7BCFCA8
:101A4000401B64284FF00300F4D92EE0FFF7B4FCEC
:101A5000401B64284FF0030027D830688003F5D47A
:101A60009DE604F11C052FCD246B084340EA82104B
:101A7000D9034FF6FF729143A1F5803140EA05602A
:101A8000084340EA0470706001203866FFF794FC58
:101A9000044600BF306880013FF5E0AEFFF78CFCE4
:101AA000001B02284FF00300F4D902B0BDE8F0811A
:101AB00080B501F085FA80BD7047000070470000D6
:101AC00010B590F83C20012A4FF0020252D00123B9
:101AD00080F83C3080F83D200268D2F804E0D2F86B
:101AE00008C00C682EF07003234341F2FF74C4F267
:101AF0000004A24253600DDC40F2FF73C4F2000305
:101B00009A4215DCB2F1804F29D040F20043C4F272
:101B1000000322E040F2FF33C4F201039A4212DCD8
:101B200041F60003C4F200039A4218D0002312E0E9
:101B300040F60003C4F200039A4210D040F600437E
:101B4000C4F2000309E044F20003C4F201039A4224
:101B500005D040F20043C4F201039A4204D149681F
:101B60002CF08003194391600121002280F83D1080
:101B700080F83C20104610BD002804BF01207047AB
:101B800010B5044690F83D0028B9002084F83C00C8
:101B9000204600F01FF8022084F83D002068211D37
:101BA00001F0CAFA012084F8460084F83E0084F867
:101BB0003F0084F8400084F8410084F8420084F833
:101BC000430084F8440084F8450084F83D00002078
:101BD00010BD000010B586B00021CDE90411CDE99B
:101BE0000211006840F20042C4F2000290420191EA
:101BF0002ED00021C4F20101884240D1002043F6DA
:101C000030010090C4F202014A6942F001024A61C7
:101C10004A6902F001020092009A00900A6842F0BC
:101C200001020A60096801F00101009100994FF476
:101C3000007101910221CDE902100490012005906C
:101C40000020C4F2020001A9FFF7DCFA1B240EE019
:101C500043F630000091C4F2020001691D2441F0F6
:101C600002010161006900F0020000900098204626
:101C700000210022FFF71CFC2046FFF715FC06B0F0
:101C800010BD000090F83D1001291CBF01207047D5
:101C9000022180F83D10006841F2FF71C4F200019A
:101CA00088420DDC40F2FF71C4F20001884215DC6D
:101CB000B0F1804F29D040F20041C4F2000122E08F
:101CC00040F2FF31C4F20101884212DC41F600010A
:101CD000C4F20001884218D0002112E040F6000151
:101CE000C4F20001884210D040F60041C4F2000165
:101CF00009E044F20001C4F20101884205D040F23B
:101D00000041C4F20101884206D1816801F0070157
:101D1000062904BF00207047016841F001010160FD
:101D20000020704710B5044690F83C0001284FF0A1
:101D3000020008BF10BD012284F83C2084F83D0059
:101D400020684FF6777382689A4382600A684F2A48
:101D50000FDC1F2A22DD202A23D0302A21D0402A5E
:101D60004DD14B68CA68194601F064FB20684021D8
:101D70003BE06F2A17DDB2F5005F20D0B2F5805F3F
:101D80002AD0702A3BD1D1E9012CCB68614601F001
:101D900077FA2068816841F077011AE00AB1102AC9
:101DA0002DD1114621E0502A18D0602A27D14B6846
:101DB000CA68194601F0A4FB2068602115E0D1E94A
:101DC000012CCB68614601F05BFA2068816841F420
:101DD0008041816000200BE0002009E04B68CA6868
:101DE000194601F027FB2068502101F055FA002028
:101DF000012184F83D10002184F83C1010BD012021
:101E0000F6E70000002804BF012070472DE9F047E5
:101E1000044690F83D000D4628B9002084F83C00A7
:101E2000204600F049F8022084F83D00206844F282
:101E30000702816891438160211D01F07DF92068CE
:101E40004FF6FF7881688269D0F820C0D5E9003E5E
:101E5000D5E9026A43EA0109AB6922EA080246EAC7
:101E600003234FF6FC46B343D5E9076742EA0A026B
:101E700029691A4342EA062242EA01112CF0AA0219
:101E80006B6942EA0E0241EA073142EA0312C0F8E6
:101E9000089081610262012084F8460084F83E00C7
:101EA00084F83F0084F8420084F8430084F83D0041
:101EB0000020BDE8F087000080B586B000210591C4
:101EC000CDE9031100680291B0F1804F019101D07A
:101ED00006B080BD43F630000091C4F202000269F2
:101EE00042F001020261026902F001020092009ACE
:101EF0000091026842F001020260006800F00100F7
:101F000000900098032001900220CDE902010120F9
:101F1000059000200491C4F2020001A9FFF772F9B4
:101F200006B080BD10B5044690F83E0094F83F20FE
:101F300094F8423094F843C0042907D089B90128A5
:101F40004FF0010008BF012B23D010BD012A4FF034
:101F5000010008BFBCF1010FF7D1022084F83F0057
:101F600012E001284FF0010008BF012AEDD1012B3A
:101F7000EBD1BCF1010F18BF10BD022084F83E0068
:101F800084F83F0084F8420084F84300042907D114
:101F90000EE0022084F83E0084F84200042907D0B5
:101FA00009B9002105E020680021012201F056F95D
:101FB00004212068012201F051F92068016841F0F4
:101FC00001010160002010BD70470000B0B504465B
:101FD00090F83C00012804BF0220B0BD0D464FEA36
:101FE000B2010120032984F83C0037D8DFE801F072
:101FF000020C16242068D5E90012EB6801F02CFAD7
:10200000206850F8181F12E02068D5E90012EB682C
:1020100001F088FA206850F8181F16E02068D5E90A
:102020000012EB6801F09CFA206850F81C1F21F0A8
:102030000C010160A9680DE02068D5E90012EB6889
:1020400001F0A8FA206850F81C1F21F440610160DB
:10205000A96809020268114301600020002184F888
:102060003C10B0BD002804BF0120704710B50446E5
:1020700090F83D0028B9002084F83C00204600F08C
:102080001FF8022084F83D002068211D01F054F85B
:10209000012084F8460084F83E0084F83F0084F86C
:1020A000400084F8410084F8420084F8430084F83A
:1020B000440084F8450084F83D00002010BD000075
:1020C00070470000B0B5044641B1082909D0042981
:1020D00014BF04F1410004F13F0004E004F13E00AC
:1020E00001E004F14000007841B1082909D0042939
:1020F00014BF04F1450204F1430204E004F142027A
:1021000001E004F1440201284FF00105127808BFF4
:10211000012A01D02846B0BD022041B1082909D0CA
:10212000042914BF84F8410084F83F0004E084F8D7
:102130003E0001E084F84000022041B1082909D0A6
:10214000042914BF84F8450084F8430004E084F8AF
:10215000420001E084F844004FEAB10003280AD8A5
:1021600023682BA252F82000DA6800251043D860BB
:10217000002DCFD102E00125002DCBD12068012216
:1021800001F06CF8206841F2FF71C4F2000188424E
:102190000DDC40F2FF71C4F20001884215DCB0F1A1
:1021A000804F29D040F20041C4F2000122E040F209
:1021B000FF31C4F20101884212DC41F60001C4F291
:1021C0000001884218D0002112E040F60001C4F25C
:1021D0000001884210D040F60041C4F2000109E03D
:1021E00044F20001C4F20101884205D040F20041EE
:1021F000C4F20101884205D1816801F00701062976
:102200003FF488AF016841F0010101602846B0BD8C
:1022100002000000040000000800000010000000A0
:1022200010B5044600680169890744BFC1685FEAC8
:10223000817138D420680169490744BFC1685FEAE9
:1022400041713CD420680169090744BFC1685FEA55
:10225000017141D420680169C90644BFC1685FEAC1
:10226000C16145D420680169C9071CBFC1685FEA24
:10227000C1714AD120680169090644BFC1685FEA9B
:10228000016149D420680169490644BFC1685FEA19
:10229000416148D420680169890644BFC1685FEA8A
:1022A000816147D410BD6FF00201016101212177E6
:1022B0008069800745D02046FFF786FE47E06FF033
:1022C0000401016102212177806910F4407F41D02F
:1022D0002046FFF779FE43E06FF008010161042119
:1022E0002177C06980073ED02046FFF76DFE40E0B1
:1022F0006FF01001016108212177C06910F4407F5F
:102300003AD02046FFF760FE3CE06FF0010101612A
:10231000204600F07FF9ADE76FF0800101612046B3
:10232000FFF7CAFBAEE76FF040010161204600F005
:1023300073F9AFE76FF0200101612046FFF7BEFBA4
:1023400010BD204600F050F8204600F0E5F80020CF
:1023500020776FE7204600F047F8204600F0DCF8D1
:10236000002020776EE7204600F03EF8204600F07F
:10237000D3F8002020776DE7204600F035F820469E
:1023800000F0CAF8002020776CE7000080B586B026
:1023900000220592CDE9032240F600010068C4F254
:1023A000000188420292019201D006B080BD43F63E
:1023B00030000092C4F20200036843F0020303609D
:1023C000006800F002000090009840200190022078
:1023D000CDE90202CDE9042001F5FE3001A9FEF7A6
:1023E00011FF06B080BD000070470000B0B5044684
:1023F00090F83C00012804BF0220B0BD0D464FEA12
:10240000B2010120032984F83C0037D8DFE801F04D
:10241000020A12222068294600F046FF206850F880
:10242000181F0EE02068294600F070FF206850F861
:10243000181F16E02068294600F09EFF206850F81B
:102440001C1F41F008010160016821F004010160D6
:1024500029690FE02068294600F0C4FF206850F881
:102460001C1F41F400610160016821F4806101607A
:10247000296909020268114301600020002184F8E3
:102480003C10B0BD002804BF0120704710B50446C1
:1024900090F83D0028B9002084F83C00204600F068
:1024A0001FF8022084F83D002068211D00F044FE42
:1024B000012084F8460084F83E0084F83F0084F848
:1024C000400084F8410084F8420084F8430084F816
:1024D000440084F8450084F83D00002010BD000051
:1024E00081B0006840F60001C4F20001884201D0CA
:1024F00001B070470020009043F64000C4F2020093
:10250000016841F004010160006800F004000090DF
:10251000009801B0704700007047000010B50446F5
:1025200041B1082909D0042914BF04F1410004F184
:102530003F0004E004F13E0001E004F140000078B7
:1025400001281CBF012010BD022041B1082909D07B
:10255000042914BF84F8410084F83F0004E084F8A3
:102560003E0001E084F840002068012200F076FE81
:10257000206840F2004140F48062C4F201018A42C6
:1025800003D1426C42F40042426441F2FF72C4F251
:10259000000290420DDC40F2FF71C4F2000188425B
:1025A00017DCB0F1804F27D040F20041C4F20001A7
:1025B00020E040F2FF32C4F20102904214DC41F606
:1025C0000001C4F20001884216D00021C4F20101CA
:1025D00010E040F60001C4F2000188420CD040F641
:1025E0000041C4F2000105E044F20002C4F201021D
:1025F000904201D0884206D1816801F00701062986
:1026000004BF002010BD016841F0010101600020FD
:1026100010BD0000704700007047000070470000C8
:102620007047000070B582B0036804461868D96826
:102630005D6900F02F02202A01F0200205D122B1AD
:10264000204601F001F802B070BD5FEA007C08D0BE
:1026500005F0010E11F4907F8EF001054DD1002D93
:102660004BD0226B0840C1063DD5012A3BD100204A
:1026700001901868019058680190019858694006C7
:1026800000F19A80A08DE18DE28D002A1CBF401AD6
:102690005FEA004102D102B070BD00BF216851E87D
:1026A000031F226821F4907142E80313002BF5D137
:1026B000216851E8051F226821F0010142E8051355
:1026C000002BF5D1202184F83E100021216300BFAA
:1026D000216851E8031F226821F0100142E803132A
:1026E000002BF5D1ACE0010600F1B0804006D2D558
:1026F000204600F09DFF02B070BDC30718BF11F463
:10270000807303D0236C43F00103236400F00406BC
:10271000012383EA96062E4303D1266C46F0020677
:10272000266400F0020683EA56032B4303D1236C90
:1027300043F00403236452EA0E0218BF0122BCF1E5
:10274000000F04D51AB1226C42F008022264226CF8
:10275000002AA0D00840800602D5204600F074FF71
:1027600020684069216C00F0400001F00801401829
:1027700076D0204600F034FF2068406940066AD5D4
:10278000206850E8050F216820F0400041E805026C
:10279000002AF5D1A06B00285DD043F2D151C0F6DC
:1027A00000010165FEF7A8FB00283FF474AFA06BA1
:1027B000016D884702B070BDA06B016849688AB29C
:1027C000002A3FF468AFA38D9A42BFF464AFE1855D
:1027D000C069B0F5807F30D0206850E8030F2168D1
:1027E00020F4807041E80302002AF5D1206850E807
:1027F000050F216820F0010041E80502002AF5D10B
:10280000206850E8050F216820F0400041E80502EB
:10281000002AF5D1202084F83E000020206300BF6C
:10282000206850E8030F216820F0100041E80302FF
:10283000002AF5D1A06BFEF71FFBA08DE18D401A99
:1028400081B22046FFF7EAFE02B070BD204600F0DC
:10285000E7FF02B070BD2046FFF7E2FE02B070BD98
:102860002046FFF7DDFE0020206402B070BD0000AE
:10287000002804BF0120704710B5044690F83D00C1
:1028800028B9002084F83C00204600F021F82420DC
:1028900084F83D002068C16821F40051C1602046E1
:1028A00000F034FF2068016921F490410161416921
:1028B00021F02A014161C16841F40051C16000204A
:1028C0002021206484F83D1084F83E1010BD0000E3
:1028D00070B586B0002604460596CDE9036644F23D
:1028E00000402168C4F2000081420296019601D0A6
:1028F00006B070BD43F630010096C4F202010A69C9
:1029000000F5DE3042F400320A610A6902F4003256
:102910000092009A00960A6842F001020A60096873
:1029200001F00101009100990C2101910221CDE9F2
:102930000216032104910721059101A9FEF762FC0B
:1029400040F2801546F2A000C2F20005C4F2020077
:102950004FF0006140224FF480634FF4807C85E8A3
:1029600047002846C5E90436C5E9066CC5E908668E
:10297000FEF79AFB002818BFFDF7D8FF262000219C
:1029800000226563AC63FEF793FD2620FEF78CFD05
:1029900006B070BD10B590F83E30202B0BD1002949
:1029A0004FF0010418BF002A01D1204610BD90F855
:1029B0003C30012B01D1022010BD0123002480F8FE
:1029C0003C30046300F010FF204610BD80B540F29B
:1029D0008200C2F200000178732916D14178827812
:1029E0006423C078594302EB820201EB42010844A0
:1029F00041F2D041401A00EE100A40F24830B8EEE1
:102A0000C00AC2F2000080ED000A40F2003040F23D
:102A10008201C2F20000C2F200010422FFF7BAFFF5
:102A200080BD00002DE9F04381B0044690F83D00E0
:102A300020280BD10E4600294FF0010055D0174633
:102A4000002A52D094F83C00012803D1022001B0A2
:102A5000BDE8F083012084F83C004FF000092120FC
:102A60001D46C4F8409084F83D00FEF7A5FCA784FD
:102A7000E784A1680746B1F5805F07D12069002887
:102A80001CBF30464E46B046064601E04FF00008F7
:102A900084F83C9007E000BF16F8010B21684860FD
:102AA000E08C0138E084E08C80B1204680213A46F9
:102AB0002B4600F0DFFE80B9002EEDD138F8020B76
:102AC00021686FF35F2048600026E9E72046402137
:102AD0003A462B4600F0CEFE18B1032001B0BDE807
:102AE000F083202084F83D00002001B0BDE8F08391
:102AF00070470000022888BF7047B0B5C0004FF48F
:102B000080310024C1404FF48072C4F2020422FAE2
:102B100000F5CAB220464FF48071FEF747FC04F579
:102B20008060EAB24FF48061FEF740FCBDE8B0403F
:102B300070470000FEE7000070B584B040F2D80096
:102B40000021C2F2000042F200024FF080544FF028
:102B50000065C4F201024FF480330126017680F84B
:102B60002010C0E90A540225CDE90211CDE9001177
:102B7000C56180F83010C0E90023C0E90211C0E946
:102B80000461FEF727F8002818BFFDF7CFFE0420E8
:102B9000CDE900060620029040F2D800C2F2000003
:102BA0006946FDF7CBFE002818BFFDF7BFFE0A20DF
:102BB00000900220019040F2D800C2F20000694665
:102BC000FDF7BCFE002818BFFDF7B0FE04B070BDD5
:102BD00080B582B0002043F630010190C4F20201BA
:102BE0000A6842F400120A600A6802F400120192B4
:102BF000019A00900868002240F48000086008688C
:102C0000002100F48000009000981120FEF750FC95
:102C10001120FEF749FC382000210022FEF748FC75
:102C20003820FEF741FC02B080BD00002DE9F043E2
:102C300087B0002743F630000697CDE90477CDE949
:102C400002770197C4F202000168002541F00401F7
:102C500001600168C4F2020501F0040101910199CB
:102C600001970168002241F08001016001684FF482
:102C7000907801F08001019101990197016841F07C
:102C800001010160016801F00101019101990197C1
:102C9000016841F00201016000684FF4907100F09A
:102CA0000200019001982846FEF780FB05F580643C
:102CB00020464FF4806100224FF48069FEF776FBD6
:102CC0004FF4005002904FF4041002AECDE9030718
:102CD00005F500603146FEF795FACDF808804FF013
:102CE000010828463146CDE903870597FEF78AFAA1
:102CF00020463146CDE90298CDE90477FEF782FA05
:102D000007B0BDE8F083000010B58AB040F2E010D3
:102D100000220021C2F20000C4F2010253234FF648
:102D2000FF74CDE90811CDE90611CDE90411CDE913
:102D30000211CDE90011C0E90023C0E90214C0E985
:102D400004118161FEF718FF002818BFFDF7EEFDA2
:102D50004FF48050069040F2E010C2F2000006A945
:102D6000FEF7E0FF002818BFFDF7E0FD40F2E0109D
:102D7000C2F20000FFF776F9002818BFFDF7D6FD74
:102D800040F2E0100024C2F2000004A9CDE904449E
:102D9000FEF796FE002818BFFDF7C8FD0120019040
:102DA0000C200094CDE9020440F2E010C2F20000D1
:102DB00069460422FFF70AF9002818BFFDF7B6FD9F
:102DC0000AB010BDB0B58CB003AC20462421FDF78D
:102DD00088FB40F228200025C2F200004FF080411D
:102DE0004FF0FF32C0E900150321C0E90252CDE9DE
:102DF000031501210F22CDE90515CDE90725CDE900
:102E000009152146CDE90055056185610B92FEF754
:102E1000F9FF002818BFFDF789FD40F22820C2F213
:102E200000006946CDE90055FEF74AFE002818BFAC
:102E3000FDF77CFD0CB0B0BD80B586B040F27020CF
:102E400040F200420021C2F20000C4F2000253230B
:102E500040F6C31CCDE90411CDE90211CDE9001102
:102E6000C0E90023C0E9021C01618161FEF784FE14
:102E7000002818BFFDF75AFD4FF48050029040F231
:102E80007020C2F2000002A9FEF74CFF002818BF14
:102E9000FDF74CFD202000900020019040F27020B2
:102EA000C2F200006946FEF70BFE002818BFFDF7CE
:102EB0003DFD06B080BD000010B58AB040F2B820DC
:102EC00040F600010024C2F20000C4F200017723A2
:102ED0000994CDE90744CDE90544CDE90344CDE9A2
:102EE000014440F2BB2280E81600C0E9033484614B
:102EF000FFF7C8FA002818BFFDF718FD40F2B82008
:102F0000C2F2000008A9CDE90844FEF7D9FD002867
:102F100018BFFDF70BFD602001900020CDE90200F5
:102F2000059040F2B820C2F2000001A90022FFF78C
:102F30005DFA002818BFFDF7F9FC40F2B820C2F294
:102F40000000FFF723FA0AB010BD000080B540F280
:102F5000003044F20041C2F20000C4F2000100233C
:102F60004FF00C0C4FF4612280E80E00C0E90333EF
:102F7000C0E905C3C361FFF77BFC002818BFFDF75C
:102F8000D5FC80BDFEE70000FEE7000000F0070072
:102F900080F00703042B28BF04234FF0FF3C0338C5
:102FA0000CFA03F338BF0020994381400CFA00F07B
:102FB00022EA000008437047704700007047000095
:102FC000B0B501380024B4EB106F1CBF0120B0BDB8
:102FD0004EF21005CEF2000568604FF0FF300F2171
:102FE00000F0A8FC0720AC6028602046B0BD0000BF
:102FF00080B5FEF7E7F940F28C00C2F200000168EC
:103000000131016040F2780040F24C31C2F2000020
:10301000C2F2000109780268002902F10101016091
:1030200018D040F24E30C2F20000018840F227234F
:1030300001318AB29A4201800CD340F29002C2F26E
:103040000002138800210180581C81B2642928BF26
:103050006420108040F2D400C2F200000168013107
:10306000016080BD70B594B007AC20463421FDF7F7
:1030700038FA002543F640000695CDE90455CDE920
:1030800002550195C4F202000168012241F080510D
:1030900001600068022600F080500190019847F21C
:1030A00000000195C4F20000016862F38F310160F5
:1030B000006800F4404001900198102007960A92A1
:1030C0000B90CDE90D650F904FF4A870109004207F
:1030D000CDE9110620461396FEF728FB78B90F209C
:1030E000CDE902064FF480500495CDE9050502A80C
:1030F0000221FEF7F1F9002804BF14B070BDFDF7FE
:1031000015FC00004EF68850CEF20000016841F434
:10311000700101607047000080B540F2E010C2F21B
:103120000000FFF77DF880BD80B540F27020C2F24C
:103130000000FFF775F880BD10B540F6FF3E03684C
:10314000C4F2000E40F2004C7045C4F2010C0FDCDA
:10315000B0F1804F19D040F20042C4F20002904218
:1031600013D040F60002C4F2000290420DD010E0ED
:1031700040F60042C4F20002904206D0604504D0FE
:103180000022C4F20102904203D14A6823F0700386
:10319000134341F6FF72C4F2000290420DDC704509
:1031A0001FDCB0F1804F41D040F20042C4F2000277
:1031B00090423BD040F6000221E043F6FF72C4F299
:1031C0000102904220DC42F20002C4F2000290426E
:1031D0002CD00022C4F20102904227D0604525D0B5
:1031E00028E040F60042C4F2000290421ED041F6B0
:1031F0000002C4F20002904218D041F60042C4F22C
:103200000002904212D015E044F20002C4F2010222
:1032100090420BD044F60002C4F20102904205D065
:1032200044F20042C4F20102904203D1CA6823F47E
:103230004073134323F080024B69D1F800E08C689F
:103240001A430260C46240F48062C0F828E062451C
:1032500004BF096901630121416110BD80B501F01E
:103260001F014FF0010CD0F820E00CFA01F32EEA18
:1032700003030362036A02FA01F11943016280BD8C
:10328000D0F808C011432CF47F4C41EA032141EAF5
:103290000C01816070470000826822F070021143C7
:1032A00041F0070181607047B0B5026A22F0010267
:1032B0000262026AD0F804E083690C6823F07303A9
:1032C0008D6843EA040C40F2004422F0020240F40C
:1032D0008063C4F20104A34242EA050205D1CD682D
:1032E00022F00C0225F004052A43A34206D1D1E9BD
:1032F00005542EF440732B4343EA040EC0F804E057
:10330000C0F818C0496841630262B0BD70B5026A76
:1033100022F010020262026AD0F804E083690C68AD
:1033200023F4E6438D6843EA042C40F2004422F083
:10333000200240F48063C4F20104A34242EA051271
:1033400007D1CD686FF0400622F0C00206EA0515ED
:103350002A43A34207D1D1E905652EF4406343EA2D
:10336000860343EA850EC0F804E0C0F818C0496837
:103370008163026270BD000070B5026A22F480723F
:103380000262026AD0F804E0C3690C6823F0730398
:103390008D6843EA040C40F2004422F4007240F4C9
:1033A0008063C4F20104A34242EA052207D1CD683A
:1033B00040F2FF462D0222F44062B5432A43A34265
:1033C00007D1D1E905652EF4405343EA061343EAD9
:1033D000051EC0F804E0C0F81CC04968C163026261
:1033E00070BD000010B5026A40F2004422F4805221
:1033F0000262D0F820C04268C369C4F2010423F419
:10340000E64E40F48063A3420B688C684EEA032EBC
:103410002CF4005343EA043C04D14B6922F480426B
:1034200042EA83124260C0F81CE049680164C0F8B7
:1034300020C010BDD0F820C0036A23F0010303624E
:10344000836923F0F00343EA02122CF00A031943C4
:10345000826101627047000010B5D0F820C041F2CF
:10346000FF742CF0010CC0F820C0D0F818E0D0F8A0
:1034700020C0C4F20004A0420DDC40F2FF74C4F28C
:103480000004A04215DCB0F1804F29D040F2004486
:10349000C4F2000422E040F2FF34C4F20104A0426E
:1034A00012DC41F60004C4F20004A04218D000244B
:1034B00012E040F60004C4F20004A04210D040F62E
:1034C0000044C4F2000409E044F20004C4F2010420
:1034D000A04205D040F20044C4F20104A0420CD145
:1034E0002EF00304224363F307122CF00A0301F0C9
:1034F0000A0119448261016210BD4EF00102F2E737
:10350000036A23F0100303628369D0F820C023F418
:10351000704343EA02322CF0A00343EA01118261B6
:103520000162704710B5D0F820C012022CF0100CC8
:10353000C0F820C0D0F818C0D0F820E04FF2FF0447
:10354000A2432CF4734C63F30F322EF0A00301F06E
:103550000A0142EA0C0243EA01118261016210BDD4
:1035600080B5D0F820C063F307122CF4807CC0F83B
:1035700020C0D0F81CC0D0F820E02CF0F30C2EF4C2
:10358000206301F00A0142EA0C0243EA0121C26110
:10359000016280BD10B5D0F820C012022CF4805C0E
:1035A000C0F820C0D0F81CC0D0F820E04FF2FF04D3
:1035B000A2432CF4734C63F30F322EF4204301F03A
:1035C0000A0142EA0C0243EA0131C261016210BD04
:1035D00080B5806B0021C185C184FFF721F880BDD3
:1035E000016851E8031F026821F4907142E8031357
:1035F000002BF5D1016851E8051F026821F0010197
:1036000042E80513002BF5D1016B01290AD100BF57
:10361000016851E8031F026821F0100142E803131A
:10362000002BF5D1202180F83E1000210163704766
:1036300080B50168CA6822F04002CA60202180F883
:103640003D10FFF755FA80BD80B582B090F83E106E
:1036500022291ED18268B2F5805F02D1016900295A
:1036600048D0816AB2F5805F07D00AB9026922B1F9
:103670000268526802F07F0201E0026852680A7034
:103680000121826A11448162C18D01390A04C18518
:1036900001D002B080BD0168CA6822F02002CA6071
:1036A000CA6822F48072CA604A6922F001024A6143
:1036B000202180F83E10016B012923D100210163F4
:1036C000016851E8031F026821F0100142E803136A
:1036D000002BF5D101680A68D20606D500220192B6
:1036E0000A680192496801910199818DFEF796FF60
:1036F00002B080BD0168826A49686FF35F21118062
:103700000221BEE7FFF762F902B080BD10B50446A2
:103710000068D4E902C22369016921F440511143D0
:103720000161626943EA0C01E3691143C26819430C
:1037300049F20C639A431143C1604169A26921F4C3
:10374000407141F20043114340F48062C4F201032E
:103750009A42416102D1FDF787FF01E0FDF772FF58
:10376000E16963681922B1F5004FA0FB02011CD189
:103770005A00DB0FFCF79AFD48F21F51C5F2EB111E
:10378000A0FB01235A096FF0630302FB03003223FD
:1037900003EBC000A0FB01014FF4F87000EA111028
:1037A00000EB0210C1F342111AE09A009B0FFCF7E4
:1037B0007DFD48F21F51C5F2EB11A0FB01235A0910
:1037C0006FF0630302FB0300322303EB0010A0FB46
:1037D0000101F02000EA511000EB0210C1F3431187
:1037E00022680843906010BD81628285C2850021F5
:1037F0002222016480F83E20026980F83C1022B148
:103800000168CA6842F48072CA600168486940F081
:1038100001004861C86840F020020020CA6070477B
:1038200090F83D10212923D18168B1F5805F01D145
:10383000016931B1016A02684B1C03620978516069
:1038400007E0016A036831F8022B6FF35F225A60C8
:103850000162C18C01390A04C18418BF7047006835
:10386000C16821F08001C160C16841F04001C160C0
:10387000704700002DE9F0410446006800680840E8
:10388000884202D10020BDE8F0811D460E469046D8
:103890005F1C04E0206800683040B042F2D0002F86
:1038A000F8D02DB1FDF788FDA0EB0800A842F1D9B2
:1038B000206850E8030F216820F4D07041E803022B
:1038C000002AF5D1206850E8050F216820F001009A
:1038D00041E80502002AF5D1202084F83D0084F853
:1038E0003E00002084F83C000320BDE8F081000089
:1038F00080B540F20030C2F20000FEF793FE80BDBA
:10390000FEE70000002848BF704700F01F010122B9
:1039100002FA01F14EF200124009CEF2000242F822
:10392000201070474EF60C50CEF200000068C0F335
:10393000022070474EF6145300F00F02CEF200033F
:1039400009011A4400F16043B0F1FF3FC8BF03F51D
:1039500064421170704700004EF60C51CEF2000127
:103960000A684FF6FF031A4060F30A2242F08060B3
:1039700040F0FD700860704782B00026C4F2020675
:10398000FDF72EFDFFF76EFBFFF750F9FFF720F96B
:10399000FFF7D2F8FFF7B8F9FFF714FAFFF78CFA40
:1039A000FFF7D4FAFFF748FA6420FDF717FC40F25E
:1039B0002820C2F200003C21FEF7B4FA40F2B82001
:1039C000C2F2000000210027FEF7A8FD40F2E0153A
:1039D000C2F2000528460421FEF774FB40F2702471
:1039E000C2F200042046FEF74DF92846FEF74AF9D8
:1039F00040F2D80040F27001C2F20000C2F20001B1
:103A00000222FDF787F940F2003040F28201C2F253
:103A10000000C2F200010422FEF7BCFF0120FFF704
:103A200069F86320E0602046FEF7A6F8002000F069
:103A30007BF840F29000C2F20000078040F2443868
:103A400040F2D40A40F2920740F2000B06F50066FD
:103A5000C2F20008B2EE048AC2F2000AC2F2000703
:103A60000FF2B409C4F2020B30464FF40051FDF7D7
:103A700097FC28B940F24C310120C2F200010870D5
:103A80002868416AB1F5FA7FEED3002141625846B9
:103A900020210122FDF78AFC40F25030C2F20000E2
:103AA000007800EB8000400088F80000C0B200F011
:103AB0003BF840F27C00C2F2000090ED000A40F2B8
:103AC000700120EE080AC2F20001BDEEC00A4C6887
:103AD00040F2800110EE100ADAF8002098F8003069
:103AE000C2F2000108800090384649460194FCF774
:103AF00055FC3846FCF7D6FC82B240F20030C2F2E8
:103B0000000039460423FEF78DFF5846202100228D
:103B1000FDF74CFCA8E700BF25752C25752C2575F5
:103B20002C25750D0A00000040F2B821C2F20001F8
:103B3000096848637047F1EE100A4FF6FF71C0F252
:103B4000C03120EA010040F04070E1EE100A7047F9
:103B5000000000000000000001020304060708093D
:103B60000000000001020304883B00080000002060
:103B70001000000000020008983B00081000002020
:103B8000480900001C0200080024F40001000000A5
:083B900010000000000000001D
:04000005080001C529
:00000001FF
