:020000040800F2
:10000000381100206D020008253900089D340008D1
:1000100021390008E1060008AD3D0008000000009D
:100020000000000000000000000000002D39000862
:10003000FD060008000000002939000831390008D9
:10004000870200088702000887020008870200086C
:10005000870200088702000887020008870200085C
:10006000870200088702000887020008870200084C
:10007000870200088702000887020008870200083C
:1000800087020008E5060008D50600088702000878
:10009000870200088702000887020008870200081C
:1000A000870200088702000887020008653A0008F6
:1000B00087020008713A00088702000887020008DA
:1000C00087020008870200088702000887020008EC
:1000D0008702000887020008A13D00088702000887
:1000E00087020008870200088702000887020008CC
:1000F00087020008870200088702000887020008BC
:1001000087020008870200088702000887020008AB
:10011000870200088702000887020008870200089B
:10012000F10600088702000887020008870200081D
:10013000870200080000000000000000870200089D
:10014000870200088702000887020008870200086B
:10015000870200088702000887020008870200085B
:10016000870200088702000887020008870200084B
:1001700087020008870200088702000800000000CC
:1001800000000000870200080000000000000000DE
:10019000870200080000000000000000870200083D
:1001A00000000000000000000000000087020008BE
:1001B00087020008870200088702000887020008FB
:1001C0008702000800F002F800F041F80AA090E869
:1001D000000C82448344AAF10107DA4501D100F002
:1001E00036F8AFF2090EBAE80F0013F0010F18BF8E
:1001F000FB1A43F001031847EC3D00000C3E0000E1
:10020000103A24BF78C878C1FAD8520724BF30C842
:1002100030C144BF04680C60704700000023002414
:1002200000250026103A28BF78C1FBD8520728BF06
:1002300030C148BF0B607047752900F0F78000207F
:1002400070471FB503F0A0FE1FBD10B510BD00F034
:10025000C2F91146FFF7F5FF03F0AAFD00F0E0F93F
:1002600003B4FFF7F2FF03BC00F0E8F90948804748
:1002700009480047FEE7FEE7FEE7FEE7FEE7FEE788
:10028000FEE7FEE7FEE7FEE704480549054A064BA0
:1002900070470000513A0008C5010008380B0020E3
:1002A00038110020380D0020380D002053EA020CD0
:1002B00000F069802DE9F04B4FF00006002B1FBFC6
:1002C000B3FA83F503FA05F424FA05F65E4012BF8B
:1002D0001643B2FA82F502FA05F4C5F120051EBFF5
:1002E00022FA05FC44EA0C04203556EA044C4FEA95
:1002F000144418BF641C4FF000084FF000099042EE
:1003000071EB030C39D3002919BFB1FA81F701FA57
:1003100007F6B0FA80F700FA07F6C7F120071EBF0C
:1003200020FA07FC46EA0C062037B6FBF4FCA7EBE4
:100330000507103F07F01F0BCBF120062CFA06F63D
:100340000CFA0BFB44BFB3460026202FA4BF5E4629
:100350004FF0000B5BEA060C08BF4FF0010B19EBE6
:100360000B0948EB0608ABFB027C06FB02CC0BFB3F
:1003700003CCC01B71EB0C01C1E70B4602464146A2
:100380004846BDE8F08B13B5084318BF4FF0FF3067
:100390000146AFF30080BDE81C4070470FB41CB5A8
:1003A000074B06AA7B4469460090059800F0FBF8CD
:1003B0000020694600F00AF91CBC5DF814FB00003F
:1003C000250200002DE9F0410E460446002020627F
:1003D0002046E168884730B3252805D0D4E90121BB
:1003E0009047206A401CF2E7E168204600278847D2
:1003F000050018D0A5F14100192802D820354FF486
:1004000000673246294620462760FFF715FF40B1B6
:10041000012804D0F61D26F007060836D8E7361D59
:10042000D6E72846DAE7206ABDE8F0812DE9F041F9
:100430000646002410687529314616A510D0AFF382
:100440000080002802DA404213A507E031688A07DD
:1004500001D512A502E0490704D511A5012401E048
:10046000AFF3008000210A2206F1240709E0B0FB67
:10047000F2FCB0FBF2F302FB1C003030785418465B
:10048000491C0028F3D123462A463046BDE8F041F6
:1004900000F02AB8000000002D0000002B00000032
:1004A0002000000010B5431C02E010F8011B71B1E0
:1004B0008107FAD14FF0013202C88C1A8C4314EA3A
:1004C000C211F9D0C01A0A0603D0C01E10BDC01A4E
:1004D00010BD0A0401D0801E10BD0902FCD0401ED0
:1004E00010BD7047704770472DE9F0470D4699469B
:1004F0009246044600F124080168880604D5E069A4
:1005000021F01001216000E00120A84201DD471B1D
:1005100000E00027A1697A1902EB0900081AA0611E
:100520002078C00602D42046AFF30080002608E001
:10053000D4E901211AF806009047206A401C761C75
:1005400020624E45F4DB2078C0060AD52046AFF382
:10055000008006E0D4E9012130209047206A401C49
:100560002062381EA7F10107F4DC07E0D4E901217D
:1005700018F805009047206A401C2062281EA5F14B
:100580000105F3DC2046AFF300802078000602D599
:100590000220BDE8F0870120FBE7000001694A1C4A
:1005A00002610878704700B58FB0CDE901310021B4
:1005B000059105497944CDE9031011466846FFF7D6
:1005C00001FF0FB000BD0000E5FFFFFF0A6802F861
:1005D000010B0A607047754600F02CF8AE46050026
:1005E0006946534620F00700854618B020B5FFF74E
:1005F0004BFEBDE820404FF000064FF000074FF0E3
:1006000000084FF0000BAC46ACE8C009ACE8C009EC
:10061000ACE8C009ACE8C00921F007018D4670477D
:1006200010B50446AFF300802046BDE81040FFF748
:1006300017BE000000487047100000200149182034
:10064000ABBEFEE726000200704700000146806B4B
:10065000036C026C13F0500F07D0D20648BF00F0B5
:1006600027B9806BC26C0846104742F400710164E0
:1006700001688A6812F0405F01D000F0EFB8027E96
:10068000002AFAD1CA6A12F4700F02D08A685205A1
:10069000F3D44A6822F020024A60016C21F4807190
:1006A0000164016CC90448BF00F0D8B8016C41F086
:1006B0000101016400F0D2B8806B40210164416CFB
:1006C00041F00401416400F0F3B80000806B00F0D9
:1006D000EDB8000040F6C000C2F2000000F0EAB839
:1006E000FEE7000040F66810C2F2000000F0C2BB56
:1006F00040F60810C2F2000000F0BCBB70470000DA
:10070000EFF3108072B600BFFEE7000070470000F4
:1007100070B581B00022009290F83C20012A03D1EC
:100720000221084601B070BDD1F800E001221FFA95
:100730008EFC80F83C204FEA4C0212FA8EF2BEF199
:100740000A0F036832BF03F110041E3A03F10C04D0
:1007500007252668954026EA050525608D682668E8
:1007600005FA02F2324322604968062905D801EBF6
:1007700081014A1F03F134040BE00C2901EB8101D4
:1007800087BFA1F1410203F12C04A1F1230203F17F
:1007900030041F252668954026EA050542F20431FB
:1007A0002560C4F2010125680CFA02F2A1F5417638
:1007B0002A43B342226005D0002180F83C1008464D
:1007C00001B070BD1222BEF1110FC1F2000218BFBC
:1007D000964536D10B68964523F480030B600B6871
:1007E00043F400030B60E7D140F20C01C2F20001B8
:1007F00009684DF68362C4F21B32A1FB0212910C10
:1008000001EB81014900009100990029D4D000BF7B
:1008100000990139009100990029CDD00099013942
:10082000009100990029C7D00099013900910099E1
:100830000029C1D000990139009100990029E7D120
:10084000BAE7BEF1120FB7D10A6822F400020A60BB
:100850000A6842F480020A60AEE7000040F27000CD
:10086000C2F20000D0F818C0D0E9082340F2E80135
:10087000C2F2000141F822300CEB0301816140F229
:100880000801C2F200010968013201398A4202629C
:1008900003D9002101620121016100F1240140F628
:1008A000C000C2F20000012200F0C2B9704700008F
:1008B0007047000070B50446006806684568B107D7
:1008C00017D515F0200114D0216CC90603D4216C72
:1008D00041F400712164816811F0405F02D1217EF2
:1008E000002968D02046FFF7B9FF20686FF0120199
:1008F0000160710714D515F0800111D0216CC90673
:1009000003D4216C41F400512164816811F4401F2B
:1009100022D02046FFF7FAFE20686FF00C0101603C
:10092000F10706D015F040011CBF01685FEAC171F4
:1009300033D1B1060FD515F0806108BF70BD616C71
:100940006FF0200541F00201616405602046FFF769
:10095000AFFF2068056070BD816B11F4401F02D0AD
:1009600081684905D5D441684905D2D4816811F020
:10097000405FCED1217E0029CBD1416821F080019A
:100980004160206C20F480502064206CC005C0D4ED
:10099000206C40F001002064BBE7206C40F4803004
:1009A0002064204600F0CCF820686FF0010101605F
:1009B000B106C0D4CFE7C16A11F4700F03D08168CB
:1009C00049053FF58FAF416821F020014160206C5F
:1009D00020F480702064206CC0043FF583AF206C4D
:1009E00040F0010020647DE7002804BF012070472B
:1009F00010B50446006CE8B3206CC00644D4206CEB
:100A000041F202118843023042F204312064C4F200
:100A10000101086820F4403008600A6894E8091071
:100A20001A43D4F810E00A604168012321F4807170
:100A300041604168C0F6007341EA0E21416041689F
:100A400021F040714160416841EA0C0141608168D8
:100A500021F400618160E168826811438160A16ACC
:100A60008268994222F070628260826811D122F01D
:100A7000405117E0204600F065F80020606484F8DB
:100A80003C00206CC006BAD50120002184F83C103F
:100A900010BD11438160816821F040518160E16A9D
:100AA000826811438160816821F002018160816860
:100AB000227E94F8203041EA42018160416883B18E
:100AC00041F40061416041684EF2000221F460414E
:100AD0004160616ACFF6FF72436802EB413119430E
:100AE00001E021F400614160C16A40F2000C21F490
:100AF0007001C162E2696169CFF6F07CC36A0CEBF8
:100B000002521A43C262826822F40072826094F830
:100B10003020836843EA42228260826822F4806245
:100B20008260826842EA8121816000206064216CD9
:100B3000012262F301012164002184F83C1010BD00
:100B4000704700002DE9F04186B000260596CDE9FA
:100B50000366044642F200070068C4F20107B84287
:100B60000296019602D006B0BDE8F08143F630004F
:100B70000096C4F20200416901AD41F48071416107
:100B800041694FF0030801F48071009100990096CB
:100B9000016841F004010160016801F00401009165
:100BA00000990096016841F0010101600068294642
:100BB00000F00100009000980120019007F56840C6
:100BC000CDE9028600F046FB1020CDE9010807F5CB
:100BD00060402946039600F03DFB40F6081546F2BA
:100BE0001040C2F20005C4F202004FF48061C5E972
:100BF000000605F110004FF480524FF48043C5E920
:100C000002664EC02846C5E9086600F013FA0028BF
:100C100018BFFFF775FD122000210022A563AC6309
:100C200000F07EFC122000F06BFC06B0BDE8F08105
:100C3000B0B582B004460020019094F83C00012831
:100C400002D1022002B0B0BD94460A4601202168BC
:100C500084F83C008868C00729D188684DF6836510
:100C600040F00100886040F20C00C2F20000006811
:100C7000C4F21B35A0FB0505A80C00EB4000019059
:100C80000198A0B1019801380190019878B10198BC
:100C900001380190019850B10198013801900198F4
:100CA00028B101980138019001980028EAD188689C
:100CB000C00503D5886820F4807088608D68206C3A
:100CC000ED0709D140F010002064606C40F0010095
:100CD0006064002002B0B0BD40F20175A84300F589
:100CE000807020644868400504D5206C012565F3B8
:100CF0000D302064256C0020ED044FF0000544BF4A
:100D0000656C25F00605656484F83C00A06B40F234
:100D10004D6540F2CD63C0F60005C0F60003C0E9A2
:100D20000F5340F2B963C0F60003C3646FF02203AF
:100D30000B604B6842F2080543F080634B608B68A0
:100D4000C4F2010543F480738B604C31634600F0BC
:100D50001FFAD5F8FC122068C906A5F108010CD0CD
:100D60008842B6D1286810F0405FB2D1286840F0C0
:100D700080402860002002B0B0BD884214D042F20A
:100D80000021C4F2010188420AD042F20011C4F2EB
:100D9000010188429DD1D5F8FC12C90699D103E022
:100DA000D5F8FC12C90694D4816811F0405F90D147
:100DB000816841F080418160002002B0B0BD000038
:100DC00070B5866D044600F029FB94F835100229B1
:100DD0002ED105462068216C026822F016020260BE
:100DE000426922F08002426109B9A16C19B101681F
:100DF00021F008010160016821F001010160006833
:100E0000C00708D000F00AFB401B052817D820684F
:100E10000068C007F6D1E06D3F2101FA00F0B06034
:100E2000012084F835000020002184F8341070BDC2
:100E3000802060650120002184F8341070BD2020DE
:100E40006065032084F83500002184F8341070BDFB
:100E500090F83510022909D1052180F83510006875
:100E6000016821F001010160002070478021416587
:100E700001207047F0B581B004460020009040F298
:100E80000C00C2F200000268D4E9166048F2B51303
:100E900037680821C1F64E3381403942A2FB032551
:100EA0000CD0226813685B0708D5136823F004038D
:100EB0001360B160616D41F0010161650121814004
:100EC000394208D022685269120604D5B160616DBA
:100ED00041F00201616504218140394208D0226855
:100EE0001268920704D5B160616D41F0040161653B
:100EF00010218140394217D020680268120713D5AB
:100F0000B16002680168520308D4C90508D40168B9
:100F100021F008010160216C21B905E0080342D4E9
:100F2000216C09B120468847E16D202000FA01F2CA
:100F30003A4244D020680368DB0640D5B26094F89A
:100F400035300268052B1ED122F01602026042697C
:100F500022F080024261226C0AB9A26C1AB10268C6
:100F600022F0080202603F208840B060012084F82F
:100F70003500216D0020002984F8340057D0204628
:100F8000884701B0F0BD0168520310D4C90512D4DE
:100F9000016821F010010160012084F83500002073
:100FA00084F8340007E0A16C0029BBD1BCE708033A
:100FB00001D4616C00E0E16B09B120468847606DA7
:100FC000A8B3606DC0072ED0052084F835002068D6
:100FD000A90A026822F001020260009A01328A42E4
:100FE00000921AD80268D20717D0009A01328A42BA
:100FF000009212D80268D2070FD0009A01328A42BA
:1010000000920AD80268D20707D0009A01328A42B9
:10101000009202D80268D207DFD1012084F835009F
:10102000002084F83400E16C09B12046884701B003
:10103000F0BD00002DE9F041044600F0EFF9002C6E
:101040004ED00546022084F835000020216884F83F
:101050003400086820F0010008600868C00708D064
:1010600000F0DCF9401B05286BD821680868C00730
:10107000F6D1086848F23F02CFF21002D4E90135F8
:10108000024004F10C0E9EE8C1511A432A4310435A
:101090003043384340EA0800626A40EA0C00042A00
:1010A00040EA0E031FD1D4E90A5E206B4EEA030228
:1010B000104308604869BEF1000F20F0030040EAC9
:1010C000050040F0040C14D0B8F5005F41D0B8F131
:1010D000000F4ED1022D4FD0012D44D04DB94BE021
:1010E0000120BDE8F0810B60486920F0070040EA6C
:1010F000020C6FF00F004AF6AB2250FA81F0CAF6EC
:10110000AA22A0FB02231A0943F6DC73C0F60003EF
:101110009A5C40F2FF335F284FF03F00C1F814C0E3
:1011200021EA030100FA02F088BF0431C4E9161273
:101130008860002301220020636584F83520BDE823
:10114000F081032220230320636584F83520BDE865
:10115000F081032DCDD8012240230120DFE805F0E6
:10116000020C0203E8E7AEF1C070B0FA80F040096B
:1011700004E0032D04D3BCD1CEF300600028B8D026
:10118000012240230120636584F83520BDE8F08109
:1011900070B590F834C0BCF1010F45D04FF0010C90
:1011A00080F834C0D0F858E090F835C0BCF1010F99
:1011B00037D14FF0020C80F835C04FF0000CC0F86A
:1011C00054C0D0F800C08468056CC06DDCF80060C5
:1011D000402C26F48026CCF80060CCF804300B4676
:1011E00004BF13460A463F2101FA00F0CCF808304C
:1011F000CCF80C20CEF80800DCF8000040F0160017
:10120000CCF800002DB1DCF8000040F00800CCF86C
:101210000000DCF8000040F00100CCF800000020E5
:1012200070BD002180F83410022070BDB0B50446B6
:1012300000F0F4F8054640F20000C2F20000007829
:10124000611C18BF044400BF00F0E8F8401BA04236
:10125000FAD3B0BD2DE9F04F82B000F13E4241F625
:10126000000502F1FF77C4F2020507224FEAB72614
:10127000A84208BF0622062E38BF4FEAB7224FF019
:10128000010A002400274FF00008009208E000BF88
:10129000023708F10108202F04F1040400F0B480A3
:1012A0000E680AFA08F916EA090FF1D0D1F804A07D
:1012B0000AF0030BABF10106012E17D80322866852
:1012C00002FA07FECA6826EA0E06BA403243826076
:1012D0004268CAF3001522EA090205FA08F54FEA46
:1012E000480C6FEA0E062A4342600BE00322BA4024
:1012F000D643BBF1030FBC4604D1BC464FF0030BF1
:1013000022E000BFC2688D68324005FA0CF52A431E
:10131000BBF1020FC26017D16FF0030202EA58025C
:10132000024404F01C030F25D2F820E005FA03FA6A
:101330000D692EEA0A0E05FA03F343EA0E0313625F
:10134000D1F804A00AF0030B02680BFA0CF3324048
:101350001A431AF4403F4FF0010A026098D000226D
:1013600043F644030192C4F202031A6843F6004EA6
:1013700042F480421A601A68C4F2010E02F48042FC
:101380000192019A28F003024FF6084C7244CFF6FE
:10139000FF7C52F80C3004F00C060F25B540AB432F
:1013A000009D05FA06F6334342F80C30DEF80820BB
:1013B0004B6842EA090643F60C4CDD0258BF22EAAC
:1013C0000906CEF80860C4F2010CDCF800209D028A
:1013D00042EA090658BF22EA0906CCF80060DEF8A6
:1013E00004209D0342EA090658BF22EA0906CEF806
:1013F0000460DEF80020DB0342EA090658BF22EA57
:101400000906CEF8006043E702B0BDE8F08F0000A7
:10141000002A08BF090481617047000040F630309F
:10142000C2F200000068704740F2000040F6303120
:10143000C2F20000C2F2000100780A68104408609D
:101440007047000080B543F60040C4F20200016816
:1014500041F400710160016841F48061016001683C
:1014600041F480710160032000F086F8002000F054
:1014700005F800F027F8002080BD000070B540F2AC
:101480000006C2F2000640F20C013278C2F20001FE
:101490004FF47A730968B3FBF2F20446B1FBF2F140
:1014A000084600F06DFB0F2C4FF0010508D838B945
:1014B0004FF0FF3021460022002500F031F8746023
:1014C000284670BD82B0002043F640010190C4F26E
:1014D00002014A6842F480424A604A6802F480424B
:1014E0000192019A0090086840F0805008600868F6
:1014F00000F0805000900098072002B000F03CB847
:10150000002848BF704700F01F01012202FA01F1D4
:101510004EF200124009CEF2000242F8201070474D
:1015200010B54EF60C5CCEF2000CDCF80030C3F3C4
:10153000022E8EF00704042C28BF0424BEF10303FE
:101540004FF0FF3E0EFA04F438BF0023A143994048
:101550000EFA03F39A4300F00F03043B1143634474
:1015600009010C3300F16042B0F1FF3FC8BF02F542
:101570006443197010BD00004EF60C51CEF200010C
:101580000A684FF6FF031A4060F30A2242F08060B7
:1015900040F0FD70086070472DE9F041002800F030
:1015A0008B8043F60808C4F202080446D8F8F80312
:1015B0000D4600F00F00884207D288F8F853D8F89B
:1015C000F80300F00F00A84276D12068810717D5F4
:1015D000410705D5D8F8001041F4E051C8F80010D3
:1015E000010705D5D8F8001041F46041C8F8001093
:1015F000D8F80010A26821F0F0011143C8F80010DB
:10160000C0073FD1D8F8F80300F00F00A84207D96F
:1016100088F8F853D8F8F80300F00F00A8424BD12F
:101620002068410707D5D8F80010E26821F4E0519E
:101630001143C8F80010000708D5D8F80000216948
:1016400020F4604040EAC100C8F8000000F07CF8D7
:10165000D8F8001043F6A272C1F30311C0F60002DD
:10166000515C40F20C0220FA01F140F20400C2F297
:1016700000000068C2F200021160FFF7FFFE0020C8
:10168000BDE8F0816068811E022907D258F8081C65
:1016900089015CBF0120BDE8F08110E0012807D17D
:1016A00058F8081C89035CBF0120BDE8F08106E002
:1016B00058F8081C890702D40120BDE8F081D8F849
:1016C000001021F003010843C8F80000FFF7A6FE50
:1016D000064641F2883700BFD8F80000616800F084
:1016E0000C00B0EB810F8DD0FFF798FE801BB84245
:1016F000F2D90320BDE8F08140F20C0043F6080166
:10170000C2F20000C4F202010068096843F6B27236
:10171000C1F38221C0F60002515CC840704700004E
:1017200040F20C0043F60801C2F20000C4F20201CC
:101730000068096843F6B272C1F34231C0F6000294
:10174000515CC8407047000010B543F60404C4F271
:1017500002046068C0F3810142F20040C0F2F4006C
:10176000DFE801F04102071641F20020C0F27A00E2
:1017700010BD216801F03F02216823684902C3F3CC
:10178000881114D4A1FB00010023FEF78FFD15E0A2
:10179000216801F03F02216823684902C3F38811E0
:1017A00015D4A1FB00010023FEF780FD16E041F2F5
:1017B0000020C0F27A004843B0FBF2F02168022218
:1017C000C1F3014102EB4101B0FBF1F010BD41F268
:1017D0000020C0F27A004843B0FBF2F02168C1F368
:1017E0000271B0FBF1F010BD2DE9F04182B000288C
:1017F00000F0A0800446007843F60006C007C4F25B
:10180000020636D0B06800F00C0004282BD0B06877
:1018100000F00C00082802D17068400223D4B068A0
:1018200000F00C000C2802D1706840021BD46568DF
:10183000B5F5803F07D03068B5F5A02F40F0618145
:1018400040F480203060306840F480303060FFF732
:10185000E5FD0546306880030BD4FFF7DFFD401B34
:101860006428F7D9EFE03068800302D5606800286B
:1018700060D02078800722D5B06810F00C0F11D00E
:10188000B06800F00C00082802D17068400209D549
:10189000B06800F00C000C2840F0AE807068400288
:1018A00000F1AA803068800702D5E068012841D1A4
:1018B0003068216920F0F80040EAC10030602078EB
:1018C00000073BD4207840074FD4A56985B3B068A2
:1018D00000F00C00082840F0BA80012D2AD0706872
:1018E000E16900F480028A4224D1216A00F03F02BB
:1018F0008A421FD147F6C071626A0140B1EB821F74
:1019000018D1A16A4FF6FF73C903994300F440321E
:10191000A1F580318A420DD1E16A00F07062B2EB2C
:10192000016F07D1216B00F0E040B0EB017F01D1E6
:10193000002022E1012002B0BDE8F08160690028AA
:1019400040F20000C4F247206ED00121C0F8801E92
:10195000FFF764FD054600BF706F8007B2D4FFF744
:101960005DFD401B0228F7D96DE0306C4FF0000898
:10197000C0000CD4CDF80480306C4FF0010840F06A
:1019800080503064306C00F080500190019847F234
:101990000007C4F200073868C00510D4386840F466
:1019A00080703860FFF73AFD054600BF3868C00513
:1019B00005D4FFF733FD401B0228F7D943E0A568A3
:1019C000012D05D0306F052D78D140F0040030672F
:1019D000306F40F001003067FFF720FD054641F20F
:1019E000883700BF306F800700F18280FFF716FD57
:1019F000401BB842F6D926E0E06800284AD0002013
:101A0000C4F2472001210160FFF708FD054600BF31
:101A1000306880073FF54CAFFFF700FD401B022800
:101A20004FF00300F4D9A8E00021C0F8801EFFF7B2
:101A3000F5FC0546706F80077FF544AFFFF7EEFCBD
:101A4000401B0228F6D9032002B0BDE8F081002730
:101A5000C4F2472700203866FFF7E0FC022D054658
:101A60000CD100BF3068800164D5FFF7D7FC401B64
:101A700002284FF00300F5D97FE000BF30688001F5
:101A80007FF556AFFFF7CAFC401B02284FF003005A
:101A9000F4D972E00020C4F2472000210160FFF772
:101AA000BDFC0546306880077FF509AFFFF7B6FC3F
:101AB000401B02284FF00300F4D95EE020F0010043
:101AC0003067306F20F004003067FFF7A7FC002D6F
:101AD00005467FF484AF41F28837306F800707D521
:101AE000FFF79CFC401BB8424FF00300F5D944E0DF
:101AF000B8F1000F3FF4E9AE306C20F08050306454
:101B0000E3E620F480303060306820F480203060DC
:101B1000FFF784FC002D05467FF49CAE06E0FFF73E
:101B20007DFC401B64284FF0030026D830688003FA
:101B3000F5D49EE604F11C052FCD246B084340EA42
:101B40008210D9034FF6FF729143A1F5803140EA2C
:101B50000560084340EA0470706001203866FFF7B2
:101B60005DFC0446306880013FF5E2AEFFF756FCAD
:101B7000001B02284FF00300F4D902B0BDE8F08149
:101B8000411E0020B0EB116F1CBF012070474EF2C8
:101B90001002CEF2000251604EF62351CEF2000147
:101BA000F0230B70072190601160704770470000B0
:101BB0007047000010B590F83C20012A4FF0020257
:101BC00052D0012380F83C3080F83D200268D2F8E2
:101BD00004E0D2F808C00C682EF07003234341F2F1
:101BE000FF74C4F20004A24253600DDC40F2FF73A4
:101BF000C4F200039A4215DCB2F1804F29D040F2C2
:101C00000043C4F2000322E040F2FF33C4F20103B8
:101C10009A4212DC41F60003C4F200039A4218D043
:101C2000002312E040F60003C4F200039A4210D0F1
:101C300040F60043C4F2000309E044F20003C4F29A
:101C400001039A4205D040F20043C4F201039A42D4
:101C500004D149682CF080031943916001210022CE
:101C600080F83D1080F83C20104610BD002804BFCD
:101C70000120704710B5044690F83D0028B90020B7
:101C800084F83C00204600F01FF8022084F83D0054
:101C90002068211D01F0F2FE012084F8460084F83E
:101CA0003E0084F83F0084F8400084F8410084F846
:101CB000420084F8430084F8440084F8450084F826
:101CC0003D00002010BD000080B586B00021CDE9A8
:101CD0000411CDE90211006840F20042C4F2000292
:101CE0009042019136D00021C4F20101884247D1CF
:101CF000002043F630010090C4F202014A6942F02C
:101D000001024A614A6902F001020092009A0090C1
:101D10000A6842F001020A60096801F001010091BD
:101D200000994FF4007101910221CDE90210049055
:101D3000012005900020C4F2020001A9FFF78AFAF1
:101D40001B2000210022FFF7EBFB1B20FFF7D8FB35
:101D500006B080BD43F630000091C4F20200016974
:101D6000002241F0020101610069002100F002003F
:101D7000009000981D20FFF7D3FB1D20FFF7C0FB4C
:101D800006B080BD90F83D1001291CBF01207047AE
:101D9000022180F83D10006841F2FF71C4F2000199
:101DA00088420DDC40F2FF71C4F20001884215DC6C
:101DB000B0F1804F29D040F20041C4F2000122E08E
:101DC00040F2FF31C4F20101884212DC41F6000109
:101DD000C4F20001884218D0002112E040F6000150
:101DE000C4F20001884210D040F60041C4F2000164
:101DF00009E044F20001C4F20101884205D040F23A
:101E00000041C4F20101884206D1816801F0070156
:101E1000062904BF00207047016841F001010160FC
:101E20000020704780B590F83C20012A4FF0020254
:101E300000F0C280012380F83C3080F83D20D0F8CB
:101E400000C04FF67772DCF8083023EA0202CCF8C3
:101E500008200B684F2B28DC1F2B43DD202B44D0A0
:101E6000302B42D0402B40F0A980D1F804E0C96863
:101E7000DCF82030DCF8202022F00102CCF8202011
:101E8000DCF8182022F0F00242EA011123F00A02E5
:101E900042EA0E02CCF81810CCF82020DCF808102A
:101EA00041F0470121F030017DE06F2B25DDB3F5D6
:101EB000005F46D0B3F5805F77D0702B7ED1D1E93B
:101EC00001E3C968DCF8082043EA0E0322F47F42EC
:101ED00043EA01211143CCF80810DCF8081041F066
:101EE000770160E00BB1102B68D1DCF8081021F00D
:101EF0007001194341F0070155E0502B34D0602B9D
:101F00005CD1D1F804E0C968DCF8203023F010037C
:101F1000CCF82030DCF81830DCF8202023F47043B3
:101F200022F0A00243EA013142EA0E12CCF8181066
:101F3000CCF82020DCF8081041F0670121F01001F6
:101F400031E0D1E901E3C968DCF8082043EA0E0377
:101F500022F47F4243EA01211143CCF80810DCF857
:101F6000081041F480411EE0D1F804E0C968DCF8B3
:101F70002030DCF8202022F00102CCF82020DCF810
:101F8000182022F0F00242EA011123F00A0242EA8C
:101F90000E02CCF81810CCF82020DCF8081041F024
:101FA000570121F02001CCF808100022012180F80F
:101FB0003D10002180F83C10104680BD0122F5E75D
:101FC000002804BF012070472DE9F047044690F82F
:101FD0003D000D4628B9002084F83C00204600F062
:101FE00049F8022084F83D00206844F20702816825
:101FF00091438160211D01F041FD20684FF6FF787B
:1020000081688269D0F820C0D5E9003ED5E9026A2E
:1020100043EA0109AB6922EA080246EA03234FF6C4
:10202000FC46B343D5E9076742EA0A0229691A4325
:1020300042EA062242EA01112CF0AA026B6942EA46
:102040000E0241EA073142EA0312C0F808908161AA
:102050000262012084F8460084F83E0084F83F00C4
:1020600084F8420084F8430084F83D000020BDE875
:10207000F087000080B586B000210591CDE90311FD
:1020800000680291B0F1804F019101D006B080BD8F
:1020900043F630000091C4F20200026942F00102EE
:1020A0000261026902F001020092009A0091026846
:1020B00042F001020260006800F001000090009808
:1020C000032001900220CDE90201012005900020AB
:1020D0000491C4F2020001A9FFF7BCF806B080BD6C
:1020E00080B590F83E2090F83F3090F842E090F8AC
:1020F00043C0042909D0B1B9012A4FF0010208BF39
:10210000BEF1010F32D0104680BD012B4FF001020D
:1021100008BFBCF1010FF6D1022180F83F1080F812
:10212000431000681EE0012A4FF0010208BF012B96
:10213000E9D1BEF1010FE6D1BCF1010FE3D10222DA
:1021400080F83E2080F83F2080F8422080F843202D
:1021500089B10068016A21F001010162016A41F060
:102160000101016210216FF0100208E0022180F8E5
:102170003E1080F84210006801216FF00102036AEE
:102180001A400262026A114301620168002241F0B2
:1021900001010160104680BD70470000F0B590F865
:1021A0003C30012B04BF0220F0BD4FEAB2020123F4
:1021B000032A80F83C3000F2C480DFE802F00224F9
:1021C00042620368D1E900C5D1F80CE01A6A41F215
:1021D000FF7722F001021A621A4652F8186F1C6A41
:1021E000C4F20007BB4272DC40F2FF77C4F2000782
:1021F000BB427ADCB3F1804F00F08E8040F20047A2
:10220000C4F2000786E00368D1E900E6D1E902C123
:102210001A6A360222F010021A621A4652F8184F51
:102220004FF2FF071D6ABE4324F4734461F30F3677
:1022300046EA040125F0A0040EF00A0744EA071755
:102240003CE00768D1E900C5D1E902313A6A61F39F
:10225000071522F480723A623A4652F81C4F3E6AE1
:1022600024F0F30445EA040126F420660CF00A0584
:1022700046EA052611603E62116821F00C011160EA
:102280005BE00368D1E900E6D1E902C11A6A3602CF
:1022900022F480521A621A4652F81C4F4FF2FF077E
:1022A0001D6ABE4324F4734461F30F3646EA040109
:1022B00025F420440EF00A0744EA073711601F6234
:1022C00011684FEA0C2321F44061116035E040F2BF
:1022D000FF37C4F20107BB4212DC41F60007C4F22B
:1022E0000007BB4218D0002712E040F60007C4F2F6
:1022F0000007BB4210D040F60047C4F2000709E0D7
:1023000044F20007C4F20107BB4205D040F2004787
:10231000C4F20107BB4219D126F00306354324F06D
:102320000A070CF00A066EF3071537449D611F6219
:102330009F6927F00C079F618B6811681943002380
:102340001160002180F83C101846F0BD46F00105F0
:10235000E5E70000002804BF0120704710B50446DF
:1023600090F83D0028B9002084F83C00204600F099
:102370001FF8022084F83D002068211D01F07EFB3B
:10238000012084F8460084F83E0084F83F0084F879
:10239000400084F8410084F8420084F8430084F847
:1023A000440084F8450084F83D00002010BD000082
:1023B0007047000041B108290BD004290ED100F16B
:1023C0003F0200F143030DE000F13E0200F1420341
:1023D00008E000F1400200F1440303E000F1410293
:1023E00000F1450312781B78012A4FF0010208BF63
:1023F000012B01D010467047022271B1082917D075
:10240000042920D180F83F2080F843204FEAB1030F
:10241000032B4FF00102EDD81FE080F83E2080F83A
:1024200042204FEAB103032B4FF00102E2D814E03F
:1024300080F8402080F844204FEAB103032B4FF08E
:102440000102D7D809E080F8412080F845204FEA02
:10245000B103032B4FF00102CCD843F6BC7C0068DB
:10246000C0F6000C5CF823C0C36801F01F0143EA0A
:102470000C03C360036A02FA01F123EA010202625B
:10248000026A114341F2FF72C4F2000290420162FB
:102490000DDC40F2FF71C4F20001884215DCB0F19E
:1024A000804F29D040F20041C4F2000122E040F206
:1024B000FF31C4F20101884212DC41F60001C4F28E
:1024C0000001884218D0002112E040F60001C4F259
:1024D0000001884210D040F60041C4F2000109E03A
:1024E00044F20001C4F20101884205D040F20041EB
:1024F000C4F2010188420CD1816801F0070106296C
:1025000004BF00207047016841F001010160002014
:1025100070470168002241F00101016010467047D8
:1025200010B5016804460869800744BFC8685FEABF
:10253000807038D40869400744BFC8685FEA4070BB
:102540003DD40869000744BFC8685FEA007043D4FF
:102550000869C00644BFC8685FEAC06048D408691B
:10256000C0071CBFC8685FEAC0704ED1086900068A
:1025700044BFC8685FEA00604FD40869400644BFA2
:10258000C8685FEA406050D40869800646BFC868E2
:102590005FEA806010BD6FF0200220460A61BDE84E
:1025A0001040FFF705BB6FF00200086101202077A3
:1025B0008869800741D02046FFF7EEFD43E06FF0C9
:1025C0000400086102202077886910F4407F3ED023
:1025D0002046FFF7E1FD40E06FF0080008610420AD
:1025E0002077C86980073CD02046FFF7D5FD3EE044
:1025F0006FF01000086108202077C86910F4407F50
:1026000039D02046FFF7C8FD3BE06FF001000861BC
:10261000204600F033FA2168A8E76FF080000861D7
:102620002046FFF7C3FA2168A7E76FF04000086172
:10263000204600F025FA2168A6E7204600F026F89B
:10264000204600F07DF921680020207772E72046BF
:1026500000F01CF8204600F073F921680020207774
:102660006FE7204600F012F8204600F069F9216873
:10267000002020776CE7204600F008F8204600F0A4
:102680005FF921680020207769E7000070470000AB
:102690002DE9F04190F83C30012B04BF0220BDE849
:1026A000F0814FEAB2020123032A80F83C3000F2A5
:1026B000F780DFE802F0023F7FC003681A6A22F069
:1026C00001021A621A461C6AD3F804C052F8186F45
:1026D0000D6826F073068F6846EA050E40F2004644
:1026E00024F0020443F48065C4F20106B54244EAD2
:1026F000070405D1CF6824F00C0427F004073C43FD
:10270000B54206D1D1E905652CF44077374347EA55
:10271000050CC3F804C0C3F818E04F6809695F638B
:102720001C629F6947F008079F619F6927F00407B3
:102730009F61B1E0036840F200481A6AC4F20108E0
:1027400022F010021A621A461D6AD3F804C052F829
:10275000187F0E6827F4E6478C6847EA062E25F0B6
:10276000200743F48065454547EA041407D1CF6844
:102770006FF0400624F0C00406EA071634434545CE
:1027800007D1D1E905652CF4406747EA860747EA97
:10279000850CC3F804C0C3F818E04F6809699F634B
:1027A0001C629F6947F400679F619F6927F48067F7
:1027B0009F6170E0036840F200481A6AC4F20108A1
:1027C00022F480721A621A461D6AD3F804C052F8C5
:1027D0001C7F0E6827F073078C6847EA060E25F405
:1027E000007743F48065454547EA042408D1CF6863
:1027F00040F2FF463F0224F4406427EA06063443D1
:10280000454507D1D1E905652CF4405747EA06173D
:1028100047EA051CC3F804C0C3F81CE04F68096907
:10282000DF631C62DF6947F00807DF61DF6927F0BB
:102830000407DF6130E0036840F200471A6A43F49E
:10284000806522F480521A621A46D3F820C05C6870
:1028500052F81C6FC4F20107BD420F6826F4E64629
:102860008D6846EA07272CF4005646EA053604D15F
:102870004D6924F4804444EA85145C60DF614F684C
:1028800009691F641E62DF6947F40067DF61DF6961
:1028900027F48067DF610902136819430023116080
:1028A000002180F83C101846BDE8F081002804BFE4
:1028B0000120704710B5044690F83D0028B900206B
:1028C00084F83C00204600F01FF8022084F83D0008
:1028D0002068211D01F0D2F8012084F8460084F818
:1028E0003E0084F83F0084F8400084F8410084F8FA
:1028F000420084F8430084F8440084F8450084F8DA
:102900003D00002010BD000081B0006840F60001CD
:10291000C4F20001884201D001B07047002000904D
:1029200043F64000C4F20200016841F00401016076
:10293000006800F004000090009801B070470000AB
:102940007047000041B1082909D0042914BF00F1E3
:10295000410200F13F0204E000F13E0201E000F11B
:1029600040021278012A1CBF01207047022241B1A7
:10297000082909D0042914BF80F8412080F83F209D
:1029800004E080F83E2001E080F84020006801F07B
:102990001F010122036A02FA01F123EA0102026225
:1029A000026A0A4341F2FF71C4F2000188420262E6
:1029B0000FDC40F2FF71C4F2000188421BDCB0F171
:1029C000804F4DD040F20041C4F20001884247D010
:1029D0004DE040F2FF32C4F20102904218DC41F6B1
:1029E0000003C4F2000398423AD00023C4F201036A
:1029F000984219D03BE040F60001C4F20001884241
:102A00002ED040F60041C4F20001884228D02EE0CA
:102A100044F20003C4F20103984221D040F2004383
:102A2000C4F20103984222D1436C884243F400432C
:102A30004364BEDD904207DC41F60001C4F20001B0
:102A400088420DD0002107E044F20001C4F20101E8
:102A5000884205D040F20041C4F20101884206D10B
:102A6000816801F00701062904BF00207047016852
:102A700041F0010101600020704700007047000034
:102A8000704700007047000070470000F0B581B04B
:102A9000044600680168C268456901F02F03202BD5
:102AA00002F0200306D12BB1204601B0BDE8F04072
:102AB00001F086B85FEA017C07D005F0010E12F440
:102AC000907F8EF001052FD175B3236B1140CA069C
:102AD00018D5012B16D100210091016800914168A1
:102AE000009100994169490600F18281A18DE28D32
:102AF000E38D002B1CBF891A5FEA014240F0FD8084
:102B000001B0F0BD0A0600F12B824906F8D5C16874
:102B100021F04001C1602021204684F83D1001B021
:102B2000BDE8F04000F0B8BCCE0718BF12F48076C4
:102B300003D0266C46F00106266401F00407012646
:102B400086EA97072F4303D1276C47F002072764D3
:102B500001F0020786EA5706354303D1256C45F09C
:102B60000405256453EA0E0318BF0123BCF1000FCE
:102B700004D51BB1236C43F008032364236C002BA2
:102B8000BED01140890603D5204601F019F820680F
:102B90004169226C01F0400102F00802891800F03E
:102BA000F08100BF50E8030F216820F4907041E8E5
:102BB0000302C2B3206850E8030F216820F490702C
:102BC00041E803027AB3206850E8030F216820F43B
:102BD000907041E8030232B3206850E8030F216887
:102BE00020F4907041E80302EAB12068DAE700BF00
:102BF000206850E8050F216820F0010041E8050237
:102C0000DAB1206850E8050F216820F0010041E8A2
:102C1000050292B1206850E8050F216820F00100FC
:102C200041E805024AB1206850E8050F216820F00C
:102C3000010041E80502002ADAD1206B012824D1E5
:102C4000206850E8030F216820F0100041E80302DB
:102C5000DAB1206850E8030F216820F0100041E845
:102C6000030292B1206850E8030F216820F01000A1
:102C700041E803024AB1206850E8030F216820F0C0
:102C8000100041E80302002ADAD1202084F83E0037
:102C90000020206320684169490640F18B8150E89B
:102CA000050F216820F0400041E80502002A00F0ED
:102CB0006F81206850E8050F216820F0400041E84E
:102CC0000502002A00F06481206850E8050F2168A1
:102CD00020F0400041E80502002A00F059812068F8
:102CE00050E8050F216820F0400041E80502002A65
:102CF00000F04E812068D2E7206850E8030F226878
:102D000020F4907042E80303BBB3206850E8030F3F
:102D1000226820F4907042E8030373B3206850E8FF
:102D2000030F226820F4907042E803032BB320685D
:102D300050E8030F226820F4907042E80303002B50
:102D4000DAD11AE0206850E8050F226820F001006F
:102D500042E80503DBB1206850E8050F226820F047
:102D6000010042E8050393B1206850E8050F22688E
:102D700020F0010042E805034BB1206850E8050F40
:102D8000226820F0010042E80503002BDAD1202060
:102D900084F83E0000202063206850E8030F22687A
:102DA00020F0100042E80303DBB1206850E8030F75
:102DB000226820F0100042E8030393B1206850E835
:102DC000030F226820F0100042E803034BB1206893
:102DD00050E8030F226820F0100042E80303002BA4
:102DE000DAD189B2204601B0BDE8F040FFF74ABE13
:102DF000A26B11684B689EB2002E3FF481AEA18D8C
:102E00008E42BFF47DAEE385D269B2F5807F00F0DB
:102E10009E8050E8030F216820F4807041E803028F
:102E2000E2B1206850E8030F216820F4807041E887
:102E300003029AB1206850E8030F216820F48070E3
:102E400041E8030252B1206850E8030F216820F4E2
:102E5000807041E803020AB12068DAE7206850E890
:102E6000050F216820F0010041E80502BAB320688F
:102E700050E8050F216820F0010041E8050272B317
:102E8000206850E8050F216820F0010041E80502A4
:102E90002AB3206850E8050F216820F0010041E8BE
:102EA0000502002ADAD11AE0206850E8050F2168EF
:102EB00020F0400041E80502DAB1206850E8050F33
:102EC000216820F0400041E8050292B1206850E8F6
:102ED000050F216820F0400041E805024AB1206852
:102EE00050E8050F216820F0400041E80502002A63
:102EF000DAD1202084F83E0000202063206850E8CA
:102F0000030F216820F0100041E80302DAB12068C5
:102F100050E8030F216820F0100041E8030292B14D
:102F2000206850E8030F216820F0100041E80302F8
:102F30004AB1206850E8030F216820F0100041E8F2
:102F40000302002ADAD1A06BFDF73AFFA18DE08DD4
:102F5000081A81B2204601B0BDE8F040FFF792BDEB
:102F600094F83D1021297FF4CBADA168B1F5805FC5
:102F700001D1216921B3216A4A1C2262097841608A
:102F800025E02046FFF780FD0020206401B0F0BD61
:102F9000A06B78B143F6B531C0F600010165FDF7CD
:102FA00057FF00283FF4ACADA06B016D01B0BDE848
:102FB000F0400847204601B0BDE8F040FFF764BD8F
:102FC000216A31F8022B6FF35F2242602162E18CAB
:102FD00001390A04E1847FF493ADC16821F08001D6
:102FE000C160C16841F04001C16001B0F0BD0000A6
:102FF000002804BF0120704710B5044690F83D003A
:1030000028B9002084F83C00204600F021F8242054
:1030100084F83D002068C16821F40051C160204659
:1030200000F04CFE2068016921F490410161416982
:1030300021F02A014161C16841F40051C1600020C2
:103040002021206484F83D1084F83E1010BD00005B
:1030500070B586B0002604460596CDE9036644F2B5
:1030600000402168C4F2000081420296019601D01E
:1030700006B070BD43F630010096C4F202010A6941
:1030800000F5DE3042F400320A610A6902F40032CF
:103090000092009A00960A6842F001020A600968EC
:1030A00001F00101009100990C2101910221CDE96B
:1030B0000216032104910721059101A9FEF7CAF820
:1030C00040F6681546F2A000C2F20005C4F2020004
:1030D0004FF0006140224FF480634FF4807C85E81C
:1030E00047002846C5E90436C5E9066CC5E9086607
:1030F000FDF7A0FF002818BFFDF702FB26200021E6
:1031000000226563AC63FEF70BFA2620FEF7F8F9A0
:1031100006B070BD90F83E30202B0BD100294FF047
:10312000010318BF002A01D11846704790F83C30BF
:10313000012B01D102207047002303638162222109
:103140008285C285036480F83E100269016880F8B8
:103150003C301AB1C86840F48070C86048690023E8
:1031600040F001004861C86840F02000C86018467F
:103170007047000040F27000C2F2000090F82C107E
:10318000732915D190F82D1090F82E20642390F813
:103190002FC0594302EB820201EB4201614441F22C
:1031A000D042891A00EE101AB8EEC00A80ED030A68
:1031B00000F12C0140F6E820C2F200000422FFF7E3
:1031C000A9BF00002DE9F04381B0044690F83D000E
:1031D00020280DD10F4600294FF0010000F0EC80AF
:1031E0001646002A00F0E88094F83C00012803D13C
:1031F000022001B0BDE8F083012084F83C004FF0CC
:10320000000921201D46C4F8409084F83D00FEF7D7
:1032100005F9A684E684A1688046B1F5805F07D1F0
:10322000206900281CBF38464F463E46074600E04E
:10323000002684F83C90E28C2068016812B36A1C76
:1032400047D0002D00F0C98009060AD4FEF7E6F841
:10325000A0EB0800A84200F2C780206801680906B8
:10326000F4D517B117F8011B04E036F8021B00274C
:103270006FF35F214160E18C0139E184E28C0168E8
:10328000002AE1D1490610D4002D41D0691C39D162
:10329000016849065CBF01685FEA416105D40168C5
:1032A000490602D401684906F2D5202084F83D0081
:1032B000002001B0BDE8F08336F8021B00276FF351
:1032C0005F214160E18C0139E184E28C0168002AD0
:1032D000D8D009065FBF01685FEA016101685FEA53
:1032E000016105D40168090602D40168F1E700BF55
:1032F000002FE1D017F8011BE3E700BF206800684A
:103300004006D2D4FEF78AF8A0EB0800A842F5D90F
:10331000206850E8030F216820F4D07041E80302D0
:10332000BAB3206850E8030F216820F4D07041E858
:10333000030272B3206850E8030F216820F4D070B4
:1033400041E803022AB3206850E8030F216820F403
:10335000D07041E80302002ADAD11AE0206850E870
:10336000050F216820F0010041E80502DAB120686C
:1033700050E8050F216820F0010041E8050292B1F4
:10338000206850E8050F216820F0010041E805029F
:103390004AB1206850E8050F216820F0010041E89B
:1033A0000502002ADAD1202084F83D0084F83E008E
:1033B000002084F83C00032001B0BDE8F08336F81B
:1033C000021B00276FF35F214160E18C0139E1842A
:1033D000E28C0168002A3FF455AF090604D5002F9E
:1033E000EDD017F8011BEFE7206850E8030F2168C4
:1033F00020F4D07041E80302BAB3206850E8030F0C
:10340000216820F4D07041E8030272B3206850E8CC
:10341000030F216820F4D07041E803022AB320682A
:1034200050E8030F216820F4D07041E80302002A1D
:10343000DAD11AE0206850E8050F216820F0010079
:1034400041E80502DAB1206850E8050F216820F054
:10345000010041E8050292B1206850E8050F21689B
:1034600020F0010041E805024AB1206850E8050F4C
:10347000216820F0010041E80502002ADAD120206D
:1034800084F83D0084F83E00002084F83C000320CE
:1034900001B0BDE8F083000070470000FEE70000C7
:1034A00070B584B040F6C0000021C2F2000042F2C4
:1034B00000024FF080544FF00065C4F201024FF457
:1034C00080330126017680F82010C0E90A540225D5
:1034D000CDE90211CDE90011C56180F83010C0E9D5
:1034E0000023C0E90211C0E90461FDF77DFA00285C
:1034F00018BFFDF705F90420CDE90006062002906B
:1035000040F6C000C2F200006946FDF701F900284C
:1035100018BFFDF7F5F80A2000900220019040F650
:10352000C000C2F200006946FDF7F2F8002818BF9B
:10353000FDF7E6F804B070BD80B582B0002043F618
:1035400030010190C4F202010A6842F400120A60DC
:103550000A6802F400120192019A009008680022A1
:1035600040F4800008600868002100F480000090AA
:1035700000981120FDF7D4FF1120FDF7C1FF38207E
:1035800000210022FDF7CCFF382002B0BDE88040CA
:10359000FDF7B6BF2DE9F04387B0002743F63000B2
:1035A000CDE905770197C4F202000168002541F0DA
:1035B000040101600168C4F2020501F004010191F7
:1035C000019901970168002241F0800101600168C2
:1035D0004FF4907801F08001019101990197016801
:1035E00041F001010160016801F0010101910199BF
:1035F0000197016841F00201016000684FF4907189
:1036000000F00200019001982846FDF701FF05F542
:10361000806420464FF4806100224FF48069FDF7FA
:10362000F7FE4FF4005002904FF4041002AECDE9C3
:10363000030705F500603146FDF70CFECDF8088064
:103640004FF0010828463146CDE903870597FDF77D
:1036500001FE20463146CDE90298CDE90477FDF719
:10366000F9FD07B0BDE8F08310B58AB040F6C81088
:1036700000220021C2F20000C4F2010259234FF6D9
:10368000FF74CDE90811CDE90611CDE90411CDE9AA
:103690000211CDE90011C0E90023C0E90214C0E91C
:1036A00004118161FEF7E2FA002818BFFDF728F83F
:1036B0004FF48050069040F6C810C2F2000006A9F0
:1036C000FEF7B0FB002818BFFDF71AF840F6C81047
:1036D000C2F20000FEF73EFE002818BFFDF710F80A
:1036E00040F6C8100024C2F2000004A9CDE9044449
:1036F000FEF760FA002818BFFDF702F801200190DC
:103700000C200094CDE9020440F6C810C2F200007B
:1037100069460422FEF742FD002818BFFCF7F0FFBF
:103720000AB010BD10B58CB040F610200024C2F2D3
:1037300000004FF080414FF0FF32C0E90014032138
:10374000C0E90242CDE9031401210F22CDE905149D
:10375000CDE90724CDE9091403A9CDE900440461AA
:1037600084610B92FEF72CFC002818BFFCF7C8FF01
:1037700040F61020C2F200006946CDE90044FEF791
:1037800019FA002818BFFCF7BBFF0CB010BD0000F1
:1037900080B586B040F6582040F200420021C2F2C7
:1037A0000000C4F20002592340F6C31CCDE9041105
:1037B000CDE90211CDE90011C0E90023C0E9021CE6
:1037C00001618161FEF752FA002818BFFCF798FFEB
:1037D0004FF48050029040F65820C2F2000002A937
:1037E000FEF720FB002818BFFCF78AFF202000907E
:1037F0000020019040F65820C2F200006946FEF712
:10380000D9F9002818BFFCF77BFF06B080BD000087
:1038100070B590B040F6000540F6A020C4F2000557
:103820000024C2F2000040F2BB2177220994CDE9C6
:103830000744CDE90544CDE90344CDE90144C0E99D
:103840000051C0E9024204618461FFF72FF80028AB
:1038500018BFFCF755FF40F6A020C2F2000008A9EF
:10386000CDE90844FEF7A6F9002818BFFCF748FF89
:1038700040F6A0246020C2F200040190002601A9B5
:1038800020460022CDE902660596FEF701FF0028DA
:1038900018BFFCF735FF20680F96A842CDE90D66EA
:1038A0000C960B9601D010B070BD002043F630018D
:1038B0000A90C4F202010A6842F002020A60096832
:1038C00001F002010A910A9940210B910221CDE9F0
:1038D0000C10CDE90E0105F5FE300BA9FDF7BAFC81
:1038E00010B070BD80B540F6E82044F20041C2F24D
:1038F0000000C4F2000100234FF00C0C4FF46122D1
:1039000080E80E00C0E90333C0E905C3C361FFF7D7
:103910006FFB002808BF80BDBDE88040FCF7F0BE0B
:10392000FEE70000FEE7000070470000704700005F
:1039300080B5FDF779FD40F6BC00C2F200000168D9
:103940000131016040F6B80040F62C31C2F20000AF
:10395000C2F2000109780268002902F10101016048
:1039600018D040F62E30C2F20000018840F2272322
:1039700001318AB29A4201800CD340F27202C2F243
:103980000002138800210180581C81B2642928BFDD
:103990006420108040F27800C2F20000016801311A
:1039A000016080BDB0B594B0002443F640000C9493
:1039B000CDE90A44CDE908440694CDE90444CDE9B3
:1039C00002440194C4F202000168012241F08051D6
:1039D00001600068022500F080500190019847F2D4
:1039E00000000194C4F20000016862F38F310160AD
:1039F000006800F4404001900198102007950A9259
:103A00000B90CDE90D540F904FF4A8701090042046
:103A1000CDE9110507A81395FDF7E6FE18B1EFF300
:103A2000108072B6FEE70F20CDE902054FF48050FA
:103A30000494CDE9050402A80221FDF7ADFD20B1F3
:103A4000EFF3108072B600BFFEE714B0B0BD000007
:103A50004EF68850CEF20000016841F4700101601A
:103A60007047000040F6C810C2F20000FEF758BDD3
:103A700040F65820C2F20000FEF752BD10B540F6E5
:103A8000FF3E0368C4F2000E40F2004C7045C4F2E1
:103A9000010C26DCB0F1804F30D040F20042C4F27D
:103AA000000290422AD040F60002C4F20002904286
:103AB00024D041F6FF72C4F20002904228DC704527
:103AC0003ADCB0F1804F5CD040F20042C4F2000218
:103AD000904256D040F60002C4F20002904250D00C
:103AE00053E040F60042C4F20002904206D0604526
:103AF00004D00022C4F201029042DAD14A6823F0D5
:103B00007003134341F6FF72C4F200029042D6DD07
:103B100043F6FF72C4F20102904220DC42F200023E
:103B2000C4F2000290422CD00022C4F20102904262
:103B300027D0604525D028E040F60042C4F20002BC
:103B400090421ED041F60002C4F20002904218D00A
:103B500041F60042C4F20002904212D015E044F255
:103B60000002C4F2010290420BD044F60002C4F2FB
:103B70000102904205D044F20042C4F20102904298
:103B800003D1CA6823F44073134323F080024B69C6
:103B9000D1F800E08C681A430260C46240F480628D
:103BA000C0F828E0624504BF096901630121416151
:103BB00010BD0000806B0021C185C184FEF764BF89
:103BC00081B090F83E10222920D18368B3F5805F40
:103BD00008D10169002964D000F128010A6803684E
:103BE0005B680AE0014651F8282F13B90369002BDE
:103BF000F5D003685B6803F07F0313700A68013235
:103C00000A60C18D01390A04C18501D001B0704735
:103C10000168CA6822F02002CA60CA6822F4807271
:103C2000CA604A6922F001024A61202280F83E20DF
:103C3000026B012A3ED10022026300BF51E8031F3C
:103C4000026821F0100142E803130168DBB151E87A
:103C5000031F026821F0100142E80313016893B1C9
:103C600051E8031F026821F0100142E803130168C4
:103C70004BB151E8031F026821F0100142E8031321
:103C80000168002BDAD10A68D20606D5002200921C
:103C90000A680092496800910099818D01B0FEF791
:103CA000F1BE0168826A49686FF35F2122F8021B46
:103CB0008262A6E701B0FFF75DBA000010B50446C6
:103CC0000068D4E902C22369016921F4405111431B
:103CD0000161626943EA0C01E3691143C268194357
:103CE00049F20C639A431143C1604169A26921F40E
:103CF000407141F20043114340F48062C4F2010379
:103D00009A42416102D1FDF70BFD01E0FDF7F4FCA1
:103D1000E16963681922B1F5004FA0FB02011FD1D0
:103D20005A00DB0FFCF7C2FA48F21F51C5F2EB1143
:103D3000A0FB01235A096FF0630302FB0300322347
:103D400003EBC000A0FB01014FF4F87000EA111072
:103D500000EB0210C1F3421122680843906010BDCD
:103D60009A009B0FFCF7A2FA48F21F51C5F2EB1123
:103D7000A0FB01235A096FF0630302FB0300322307
:103D800003EB0010A0FB0101F02000EA511000EB52
:103D90000210C1F3431122680843906010BD000077
:103DA00040F6E820C2F20000FEF770BEFEE7000019
:103DB00086B040F20009C4F20209FDF743FBFFF7A9
:103DC000F1FDFFF7E7FBFFF7B7FBFFF769FBFFF735
:103DD0004BFCFFF7A7FCFFF71BFDFFF783FDFFF789
:103DE000D7FC6420FDF722FA40F61020C2F2000052
:103DF0003C21FEF775F940F6A028C2F200084046C3
:103E000000210027FEF79EFD40F6C816C2F200060C
:103E100030460421FEF7CEFA40F65825C2F20005DE
:103E20002846FDF7AFFF3046FDF7ACFF40F27004C7
:103E3000C2F2000440F6E82004F12C01C2F20000B6
:103E40000422FFF767F948464FF480710022FDF71E
:103E5000DFFA09F580604FF4806101224FF001091B
:103E6000FDF7D6FA082068605920E8602846FDF77B
:103E7000FDFE40F6C000C2F20000CDE90477CDE9B6
:103E80000277C0F81C90FCF7AFFD20B1EFF3108073
:103E900072B600BFFEE70A20CDE9020906200490B1
:103EA00040F6C000C2F2000002A9FCF731FC20B1CC
:103EB000EFF3108072B600BFFEE740F6C00004F1D9
:103EC0002401C2F200000122FCF7B2FED8F8000083
:103ED00040F6E82940F2000A0025B2EE048A04F117
:103EE00036070FF2940BC2F20009C4F2020A4563CE
:103EF000658000BF20690128FCD1306825614562DA
:103F0000504620210122B046FDF782FA207840F683
:103F1000A02100EB8000C2F2000140000968C3B29A
:103F200060704B6394ED050A40F2080220EE080A27
:103F3000C2F20002BDEEC00AA169126810EE100ABA
:103F4000B1FBF2F6A268A080009038465946A56100
:103F5000E6610196FCF722FA3846FCF7A3FA82B232
:103F6000484639460423FFF72DF950462021002208
:103F70004646FDF74DFABDE725752C25752C2575B0
:103F80002C25750D0A000000F1EE100A4FF6FF71A6
:103F9000C0F2C03120EA010040F04070E1EE100AAA
:103FA0007047000000000000000001020304060743
:103FB00008090000000001020304000002000000E4
:103FC000040000000800000010000000FDFFFFFFDB
:103FD000FBFFFFFFF7FFFFFFEFFFFFFF00061016DD
:103FE0000006101608400008000000201000000025
:103FF00000020008184000081000002028110000EE
:104000001C02000800000000010000001000000079
:08401000320000000024F4005E
:04000005080001C529
:00000001FF
